:020000040800F2
:1000000058060020650100086B2F0008712D0008BC
:10001000692F0008ED0700087D3800080000000087
:10002000000000000000000000000000773200081F
:1000300023090008000000008D2F00087932000815
:100040007F0100087F0100087F0100087F01000890
:100050007F0100087F0100087F0100087F01000880
:100060007F0100087F0100087F0100087F01000870
:100070007F0100087F0100087F0100087F01000860
:100080007F0100087F0100087F0100087F01000850
:10009000F10700087F0100087F0100087F010008C8
:1000A0007F0100087F0100087F0100087F01000830
:1000B000693300087F0100087F0100087F01000804
:1000C0007F0100087F0100087F0100087F01000810
:1000D000A53100087F0100087F0100087F010008AA
:1000E0007F0100087F0100087F0100080000000078
:1000F0000000000000000000000000000000000000
:1001000000000000000000007F0100087F010008DF
:100110007F0100087F0100087F0100087F010008BF
:100120007F0100087F0100087F0100087F010008AF
:100130007F01000800000000000000007F010008AF
:100140007F0100087F0100087F0100087F0100088F
:10015000DFF80CD000F038FB0048004711390008E8
:10016000580600200648804706480047FEE7FEE79D
:10017000FEE7FEE7FEE7FEE7FEE7FEE7FEE7FEE757
:1001800015330008510100082DE9F05F05460020F5
:1001900092469B4688460646814640241BE02846F8
:1001A00041464746224600F020F853465A46C01AB8
:1001B000914110D311461846224600F04FFA2D1AED
:1001C00067EB01084F4622460120002100F046FA65
:1001D00017EB00094E41201EA4F10104DFDC484664
:1001E00031462A464346BDE8F09F202A04DB203AE8
:1001F00021FA02F00021704721FA02F3D040C2F147
:1002000020029140084319467047F0B480EA010289
:10021000D40F4200B2EB410F02D20246084611460B
:100220004A0042D0C30DDDB2C1F3C752AD1A202D32
:1002300035DAC1F3160141F4000204B15242C5F1AE
:10024000200602FA06F12A411044B3EBD05F23D016
:10025000C4B1012DA0EBC35009DCF0BC4FF000424B
:1002600002EAC352DBB200F5000000F021BA400000
:1002700000F1807000EBC350A0F1807040EAD170B3
:10028000490009E0490841EAC071A0EBC35000F5FC
:100290000000400800EBC350F0BC00F000BA61421F
:1002A000012202EB4101001BF6E7F0BC704781F030
:1002B0000041AAE780F00040A7E7420005D0C0F364
:1002C000C7525242914201DC0020704700EBC150FE
:1002D00070472DE9FE4F804681EA0300C00F0C46AF
:1002E000009021F0004123F00045B8EB0200A94145
:1002F00005D24046214690461C460B46024623F056
:100300000040104347D0270DC7F30A00C3F30A513A
:100310000290401A019040286BDAC3F3130040F4B6
:10032000801B0098924620B10023D2EB030A63EBB6
:100330000B0B01985946C0F14002504600F08EF96F
:1003400006460D4650465946019A00F096F910EBC4
:1003500008006141002487EA115284EAE7731A43D6
:1003600040D0009A62B3019A012A4FEA075215DC85
:10037000001B61EB02014FF0004202EA0752CDE997
:100380000042001C41F5801132462B4600F0CDF9A9
:1003900003B0BDE8F08F40462146F9E7001B61EB52
:1003A0000201001C41F5801300185B412018A2F5E2
:1003B000001747EB030140EAD570B6196D4111E013
:1003C0006D084FEA360645EAC0754FEA0752001B32
:1003D00061EB0201001C41F5801149084FEA300031
:1003E0000019514132462B4603B0BDE8F04F00F0F2
:1003F0008DB90098012240000023D0EB020263EB8C
:10040000E073009821464FEAE074B8EB000061EB1E
:100410000401E9E783F000435BE781F0004158E71E
:100420002DE9FE4F81EA030404F0004421F000416D
:1004300000944FF0000B23F0004350EA01045ED01B
:1004400052EA03045BD0C3F30A54C1F30A552C44A7
:10045000A4F2F3340194A0FB0254C1F3130141F45C
:100460008011C3F3130343F4801301FB024400FB28
:10047000034E840A970A44EA815447EA8357A4FB4F
:10048000076802958D0A05FB07854FEA932C04FB4C
:100490000C542705029D4FEA065847EA1637B5EB7C
:1004A00008056EEB070C870E920E47EA811742EAA9
:1004B0008312A7FB0201B6EB0B0164EB00042B0DCA
:1004C00043EA0C335E1844EB1C50DA465146E7FB16
:1004D0000201C5F313044FEA0B3343EA14534FEA06
:1004E0000432019C43EA0603A4F10C040294009C2C
:1004F000CDE900B400F019F903B0BDE8F08F002099
:100500000146F9E72DE9F04D81EA030404F0004BC0
:1005100021F0004514464FF0000A23F0004150EA54
:10052000050220D054EA01021DD0C5F30A57024645
:10053000C5F31303C1F31300C1F30A5640F4801549
:1005400043F48013A7EB0608101BD64608F2FD38CB
:1005500073EB050002D308F1010801E092185B413A
:10056000B8F1000F03DA00200146BDE8F08D00204D
:100570004FF48011064684460EE0171B73EB050707
:1005800005D3121B63EB050306434CEA010C490833
:100590004FEA300092185B4150EA0107EDD152EA70
:1005A000030012D082EA040083EA0501084305D063
:1005B000101BAB4106D20122002306E000224FF0BF
:1005C000004302E06FF0010253101AEB06004CEBFF
:1005D000085110EB0A0041EB0B01BDE8F04D00F0B3
:1005E00095B80EB540F2334102910021CDE90011DA
:1005F0000A460B4600F099F803B000BD01F0004335
:1006000030B421F0004150EA010206D00A0DA2F5F3
:100610006072C1F31301002A02DC30BC0020704775
:10062000440F44EAC104C100E01830BC00EBC250E2
:1006300000F035B8002801DBC0F10040002901DBE3
:10064000C1F1004181427047002801DBC0F1004048
:10065000002901DBC1F1004188427047202A04DBF8
:10066000203A00FA02F1002070479140C2F12003C5
:1006700020FA03F3194390407047202A06DBCB177A
:10068000203A41FA02F043EAE07306E041FA02F34D
:10069000D040C2F12002914008431946704700291A
:1006A000A8BF7047401C490008BF20F001007047F8
:1006B00010B4B0FA80FC00FA0CF050EA010404BF58
:1006C00010BC704749B1CCF1200421FA04F411FAAE
:1006D0000CF118BF012121430843A3EB0C01CB1DF2
:1006E0004FEA00614FEA102042BF002010BC704763
:1006F00000EBC35010440029A4BF10BC7047401C3D
:10070000490008BF20F0010010BC704710B5141E4E
:1007100073F1000408DA401C41F1000192185B41BA
:100720001A4301D120F0010010BD2DE9F04D924691
:100730009B4611B1B1FA81F202E0B0FA80F22032A8
:100740009046FFF78BFF04460F4640EA0A0041EA55
:100750000B0153465A46084313D0114653EA010091
:1007600019D0C8F140025046FFF73FFD05460E463E
:10077000504659464246FFF771FF084305D0012015
:1007800004E020463946BDE8F08D0020054346EAE6
:10079000E0762C4337430A986305E40AA0EB08008F
:1007A0000022FD0A44EA47540A3002D500200146DF
:1007B000E9E7010510196941DDE9084500196941BA
:1007C000BDE8F04DA2E70000064C074D06E0E068EA
:1007D00040F0010394E8070098471034AC42F6D388
:1007E000FFF7BAFCF43B0008143C0008FEE70000E9
:1007F000014800F011B900004800002010B50029A0
:1008000058D0826B4FF4D873046803EB0113E4589B
:1008100014F0040494600468E4584DD0E408546073
:100820000468E35803F00203D3604FF4DA730468FA
:1008300003EB0113E45804F00F041461116204681F
:10084000E358C3F30723D3614FF4DC73046803EB6D
:100850000113E45814750468E458240A54750468B4
:10086000E458240C94750468E3581B0ED3754FF4B8
:10087000DE73046803EB0113E45814760468E4584B
:10088000240A54760468E458240C94760468E358E7
:100890001B0ED3760368202289B11A61026853695E
:1008A00023F05003536190F83C20222A0DD0322AC5
:1008B0000BD00FE0426BA5E7640D1460B0E7DA607F
:1008C0000268536923F00A03ECE70268536923F4D2
:1008D0000F43536112220123002990F83C1006D0E7
:1008E000522915D0622916D0722906D115E0422965
:1008F0000ED0622908D0722908D080F83C3000BFA1
:1009000000F0D4FA002010BD322107E0522105E0AA
:1009100080F83C20F4E7222100E0422180F83C10DE
:10092000EEE77047F0B50C7D012303FA04F204688A
:10093000D4F800524E6A25F47C5503EB06231D4380
:10094000C4F800520368D3F81C429443C3F81C4215
:100950004FF41073CD691C1DBDB90568D5F80C6244
:100960009643C5F80C628E894D684F6966F31F4542
:10097000066803EBC707F5510E890D684F6966F3EA
:100980001F45066804EBC707F551CD69012D17D146
:100990000568D5F80C621643C5F80C620E884D68E0
:1009A0004F6966F31F45066803EBC703F5500D89D1
:1009B000CB684E6965F31F43056804EBC6042B51F1
:1009C0008B69002B0368D3F8044211D054EA020467
:1009D000C3F804420B69002B0368D3F8144209D012
:1009E00054EA0204C3F81442096A012904D009E058
:1009F0009443EDE79443F5E70168D1F81C321343C3
:100A0000C1F81C320068D0F8001221F00101C0F8D2
:100A100000120020F0BD70472DE9F0410446006847
:100A20000026C168C1F300134169C1F3C00210215F
:100A300013B10AB14E01C160206802694369C2F373
:100A40000012C3F380131AB113B146F4806601613A
:100A5000216848694FF00105C043C0074ED18A683C
:100A60007648904323D000208B68754A9A4320D063
:100A700000228F68734BBB431DD0002310431843E3
:100A80003CD088688A68C0F340008B68C2F340227B
:100A900003F001031043184329D04A69204622F08D
:100AA00001024A6194F83C10122906D00AE00120A4
:100AB000DAE70122DDE70123E0E701684A6922F471
:100AC0000F424A6190F83C10422908D0522908D0C0
:100AD000722908D080F83C5000F0A2FC09E02221E5
:100AE00002E0322100E0622180F83C10F4E746F495
:100AF000006620688168544A114381602168C86893
:100B0000496910F0030FC1F3400104D019B100216D
:100B10002046FFF773FE21680869496910F0030F4A
:100B2000C1F3001104D019B101212046FFF766FE80
:100B3000206C3043206420688169426911F0010F04
:100B40004369C2F30022C3F3C03305D022B11BB105
:100B5000216C41F0010121648169C1F340034169C5
:100B6000C1F340224169C1F3C0312BB122B119B1A7
:100B7000216C41F0020121648169C1F38003416964
:100B80004269C1F38021C2F3C0322BB121B11AB145
:100B9000216C41F004012164816911F0700F08D0CB
:100BA00000224169C1F3C0234169C1F3C03112B1D0
:100BB00021E00122F5E7F3B1E9B1816901F07001AB
:100BC00040292FD006DC102909D020290BD030294C
:100BD0000DD123E0502929D0602908D12AE0216CC9
:100BE00041F0080102E0216C41F0100121648169AB
:100BF00021F070018161206C00280DD02168042053
:100C0000486084F83C502068416948F65B72914323
:100C100041612046FFF7FFFEBDE8F081216C41F005
:100C20002001E3E7216C41F04001DFE7216C41F056
:100C30008001DBE7216C41F48071D7E701000004FB
:100C40000001000800000110090501002DE9F04134
:100C500004004FF0000504D094F83C00002618B1C1
:100C600007E00120BDE8F08184F83D60204600F0F7
:100C700083F8022084F83C002068016821F002011A
:100C800001602068016841F00101016000F04EFD43
:100C900007464FF0030804E000F048FDC01B0A2897
:100CA00053D820684068C007F6D021684868C0075C
:100CB00058D0A069012801D145F08005E0690128DC
:100CC0002FD025F04000226A012A2DD020F02000EC
:100CD000626A012A2BD020F01000A26A012A29D0D2
:100CE00020F00800E26A012A27D020F004000A68F8
:100CF00022F0FC0202430A60D4E902010843D4E96D
:100D00000412114308436168491E08432168C86101
:100D10002068016821F00101016000F007FD05462F
:100D200018E045F04000CEE740F02000D0E740F06A
:100D30001000D2E740F00800D4E740F00400D6E706
:100D400000F0F4FC401B0A2804D904F83C8F03206F
:100D5000667087E720684068C007F1D12068406866
:100D6000C00703D0042084F83C007AE72664012001
:100D700084F83C00002075E710B500681A4986B079
:100D800088422ED11948C16941F00071C161C06922
:100D9000174C00F0007004904FF480700090002019
:100DA000019002906946204600F0D4FB6015009047
:100DB00002200190032003906946204600F0CAFB00
:100DC0000C48416821F4C04141F0E06141F48041A8
:100DD000416000221146142000F03AFD142000F07A
:100DE0002BFD06B010BD0000006400400010024062
:100DF000000C01400000014030B511B1012925D09F
:100E000010E090F83C20222A28D090F83C20422A7A
:100E100024D000BF90F83C20622A1FD090F83C20DC
:100E2000722A1BD090F83D20012A17D0012280F8A9
:100E30003D20622290F83C40722389B1122C19D0D7
:100E4000222C18D0422C19D0322214E090F83C20E9
:100E5000322A03D090F83C20522ADBD1022030BD48
:100E6000122C05D0322C06D0522C07D0222202E0C0
:100E7000422200E0522280F83C2001E080F83C3021
:100E80000022026403685C6948F601752C435C61CA
:100E900080F83D2000680029416904D041F05001EC
:100EA0004161002030BD41F00A01F9E72DE9F05F12
:100EB0000446406BE34D4FF008090268E88805F1ED
:100EC000240A00F10B0105F11C0B8A427ED1DE4A97
:100ED000A978052602F1280839B12946EF78097961
:100EE00002F15003D7B159B137E0216B0860206B94
:100EF0000661216B92F820000875D24808301CE08A
:100F0000216B0860206B066192F8200093F8201096
:100F10000843216B0875CB480C300EE0E9B1E7B906
:100F2000216B0860206B066198F8200093F8201070
:100F30000843216B0875C3481430226B0178517542
:100F4000226B41789175226B8178D175216BC078C5
:100F500008760A21204600F07DF9E888216B401CC4
:100F60000860206B0661216B98F820000875B54871
:100F7000226B103001785175226B41789175226B8C
:100F80008178D175216BC07808760A21204600F05F
:100F900061F9E888216B801C4E460860206BC0F820
:100FA0001090A848226B203001781175226B41788F
:100FB0005175226B81789175216BC078C875226B51
:100FC0009AF8001011769AF8011000E050E0226BB8
:100FD0005176226B9AF802109176216B9AF80300F1
:100FE000C8760A21204600F035F9E888216B001DFB
:100FF00001270860206B0761216B287808750A219A
:10100000204600F027F9E888216B401D0860206B1E
:101010000661226B9BF800101175226B9BF8011082
:101020005175226B9BF802109175206B9BF8031091
:10103000C1758448226B183001781176226B417893
:101040005176226B81789176C178206BC1760A2126
:10105000204600F0FFF8E888216B801D0860206BB7
:101060000761206B697801750A21204600F0F2F8CB
:10107000626BEB8800261168D81C744FDFF8D081B2
:1010800081425FD192F814C0527D6CF3070062F385
:101090000F20626B927D62F31740626BD27D62F328
:1010A0001F60626B92F818C0527E6CF3070162F306
:1010B0000F21626B927E62F31741626BD27E62F304
:1010C0001F614246904203DCB84201D2286205E02B
:1010D000904200DD2A62B84200D32E62914203DCC6
:1010E000B94201D2696205E0914200DD6A62B9420B
:1010F00000D36E62206B9B1C0360216B5148C1F8CA
:1011000010902030226B01781175226B4178517557
:10111000226B81789175216BC078C875226B9AF823
:1011200000101176226B9AF801105176226B9AF812
:1011300002109176216B9AF80300C8760A212046A6
:1011400000F088F8626BEB881168D81D81425FD18E
:1011500092F814C0527D6CF3070062F30F20626BAB
:10116000927D62F31740626BD27D62F31F60626B07
:1011700092F818C0527E6CF3070162F30F21626B84
:10118000927E62F31741626BD27E62F31F61424628
:10119000904203DCB84201D2E86105E0904200DDF4
:1011A000EA61B84200D3EE61914203DCB94201D258
:1011B000A96105E0914200DDAA61B94200D3AE61A8
:1011C000206B5B1D0360216BC1F81090226B9BF8B4
:1011D00000101175226B9BF801105175226B9BF862
:1011E00002109175216B9BF80300C8751548226B9E
:1011F000183001781176226B41785176226B817814
:101200009176216BC078C8760A21204600F022F83A
:10121000616BE8880B6800F1080293420DD1097DEB
:101220006970226B801D1060226B01201061206BA1
:1012300001750A21204600F00DF82046BDE8F05F58
:1012400002F05CBC000000207801002000008080DB
:101250000000C8422DE9F05F0E4601680446886828
:10126000400105D48868000102D48868C0006FD5A9
:1012700094F83D0001280CD0012784F83D7094F8C3
:101280003C00222808D0322808D062280ED0122034
:1012900005E00220BDE8F09F422000E0522084F8E3
:1012A0003C008868400103D5002507E07220F6E77E
:1012B0008868000101D5012500E002254FF4C070C7
:1012C00000EB05100A5802F001020A50216B8A68EF
:1012D000EAB3D4F800C05CF800301343CA68496828
:1012E00042EAC1010B434CF80030216B0A7C02F04A
:1012F0000F020A614FF4C271226801EB05115358C5
:1013000023F00F03535022685358D4F830C0DCF850
:1013100010C043EA0C035350216B4FF4C47303EB2A
:1013200005130A7DD1F8151042EA01222168CA503E
:10133000216B4FF4C67303EB05130A7ED1F8191025
:1013400042EA01222168CA5021680A5801E00DE0F2
:101350005AE042F001020A5000F0E8F981464FF0ED
:101360000008DFF8B0A0DFF8B0B026E0226813581C
:10137000D1F80CC0098843EA0C0343EA41511150EB
:10138000B3E7701C19D02EB100F0D0F9A0EB090022
:10139000B04212D9032084F83C004DB1012D09D090
:1013A0004FF400002168886084F83D80032071E7D5
:1013B0008020F7E74FF40040F4E7ADB12068012D3D
:1013C000816816D0154888430028DAD194F83C008B
:1013D000422811D0522811D0722813D084F83C70C2
:1013E00084F83D80002055E7206881682AEA0100E2
:1013F000EAE72BEA0100E7E7222000E0322084F848
:101400003C00EDE76220FAE7042084F83C0001206C
:1014100040E7000001000004000100080000011086
:10142000704700002DE9F05F90F821100024022998
:1014300003D004218163012485E001680A6822F059
:101440000E020A6001680A6822F001020A603F4E3B
:101450003E4FB215DFF8F4C0DFF8F090DFF8ECA0F3
:10146000DFF8E8B0DFF8E4E00168783F1301150227
:10147000ACF1640CA9F15009AAF13C0AABF1280BBC
:10148000AEF1140E4FF48018B14227D9B9420ED0F4
:10149000614512D049451DD0514518D0594518D045
:1014A000714501D1424615E0294EB14201D10122D8
:1014B00010E0274E1436B14201D110220AE0244E2A
:1014C0002836B14206D0224A3C32914201D11A4616
:1014D00000E02A461E49091F0A602BE0B94213D0DA
:1014E000614517D0494522D051451DD059451DD0E1
:1014F000714501D142461AE0B14202D14FF08072EB
:1015000015E0134EB14201D1012210E0104E143605
:10151000B14201D110220AE00D4E2836B14206D068
:101520000B4A3C32914201D11A4600E02A46074953
:1015300080394A60012180F82110002180F82010B4
:10154000416B01B188472046BDE8F09F8000024012
:10155000080402402DE9F84FDFF890A100220AF1BB
:10156000040B144601274FF00F090BF1040E00BFC6
:101570000B6807FA04F52B40AB4274D1DFF870C159
:101580004E68A6EB0C0866452BD00DDC032E34D03C
:1015900005DC36B3012E19D0022E2FD11BE0112EFF
:1015A00016D0122E2AD119E0B8F5881F19D006DC02
:1015B000B8F5803F15D0B8F5801F1FD111E0B8F500
:1015C000001F0ED0B8F5041F18D10AE0CA6815E054
:1015D000CA68121D12E0CA6808320FE0CA680C32ED
:1015E0000CE08A682AB1012A4FF0080203D0456155
:1015F00004E0042202E0056100E00022FF2B01D894
:10160000064601E000F104064FEA840501D9A5F180
:101610002005D6F800C009FA05F82CEA080C02FAF1
:1016200005F54CEA050CC6F800C04D68ED0057D52D
:10163000304DAE6946F00106AE61AD6924F0030697
:1016400005F0010500952C4D06EB050CDCF8085063
:10165000A6074FEA167809FA08F6B543274EB042B6
:1016600002D1002610E03BE0254EB04201D1012618
:101670000AE0244EB04201D1022605E0224EB042DB
:1016800001D1032600E0042606FA08F62E43CCF822
:1016900008604D68DAF80060ED03554601D51E4339
:1016A00000E09E432E604D68DBF80060AD035D46B0
:1016B00001D51E4300E09E432E604D68DEF80060B9
:1016C000ED02754601D51E4300E09E432E604D6835
:1016D000AD020E4D2E6801D51E4300E09E432E60E4
:1016E000641C102CFFF444AFBDE8F88F00040140E7
:1016F00000001110001002400000014000080140ED
:10170000000C014000100140001401400C04014095
:101710008068084000D001207047C2684A40C2601B
:1017200070470AB1016170470904FBE7014880680E
:10173000704700003400002002488168027811449C
:101740008160704734000020074810B5016841F0FF
:1017500010010160032000F09BF8002000F006F863
:1017600000F024F8002010BD0020024070B50D4D9F
:1017700004464FF47A712878B1FBF0F00A49096801
:10178000B1FBF0F001F0E1F848B9102C07D20022CB
:101790002146501E00F05CF800206C6070BD0120F6
:1017A00070BD00003400002040000020204808B533
:1017B000816941F001018161816901F001010091BC
:1017C000C16941F08051C161C06900F08050009052
:1017D000032000F05DF8002211466FF00B0000F0CE
:1017E00037F8002211466FF00A0000F031F80022AD
:1017F00011466FF0090000F02BF800221146501F2F
:1018000000F026F800221146101F00F021F80022F7
:101810001146901E00F01CF800221146501E00F0E8
:1018200017F80448416821F0E061416008BD0000FC
:10183000001002400000014000F01F020121914011
:101840004009800000F1E020C0F80011704700005E
:10185000F0B40E4B1B680C46C3F30223C3F107051B
:10186000042D00D90425191D072901D2002300E009
:10187000DB1E012606FA05F1491E214099409E40D3
:10188000761E16403143F0BC01F070BB0CED00E059
:10189000064900F0070208684FF6FF03184040EAC7
:1018A0000220034A10430860704700000CED00E07E
:1018B0000000FA05014901200862704700000E424D
:1018C00030B543A401461DCC89B004AD85E81D00A8
:1018D00043A41DCC8DE81D000020454B454C042938
:1018E00041D00BDC012959D002293AD100F00AFA83
:1018F0006168C1F38131491C490030E0082948D0B2
:1019000010292ED162682168C9012AD504A8C2F322
:101910008341415CD0031BD5E06AE26A00F00F000E
:101920001DF80000D2030AD5E26AC2F30315E26A89
:101930006D1CB3FBF5F3C2F30322921C5343B3FBBC
:10194000F0F09DF81D2048438A4203D1400801E091
:10195000294848436168490203D440000321B0FB91
:10196000F1F009B030BDE16A890314E000F0DAF962
:10197000F7E72168C900F4D5E06AE16AC0F3031013
:10198000401CB3FBF0F0C1F30331891C4843400015
:10199000E7E7E16A49030029EBDBE7E7226AC2F3E4
:1019A0000121012903D1920701D5C803D9E70229F2
:1019B00005D1626A920702D549F64040D1E7032972
:1019C000CFD121688903CCD54FF22440C9E700006C
:1019D000000004050607080900000000000D0000D3
:1019E0000102030405060708090A0B0C0D0E0F106F
:1019F00000127A000010024000093D002DE9F84372
:101A0000044600785B4DC0074FF0010951D0E869EA
:101A10000026C00008D4E86940F08050E861E86919
:101A2000012600F08050009053480168C90512D487
:101A30000168804641F480710160FFF777FE074638
:101A400005E000BFFFF772FEC01B642877D8D8F806
:101A50000000C005F6D5286A10F440701ED0A18899
:101A600001F44071814219D0286A444920F4407041
:101A7000C1F8009000220A602862C0070ED0FFF76C
:101A800055FE074641F2883805E000BFFFF74EFEDD
:101A9000C11B414553D8286A8007F7D5286A616879
:101AA00020F44070084328621EB1E86920F080509D
:101AB000E8612078800705D56868A16820F4404077
:101AC000084368602078400705D5E86AE16820F49B
:101AD00000300843E8622078000705D5E86A2169EC
:101AE00020F480200843E862E86A800302D4E86AB0
:101AF000400333D52868C00028D42868400105D5A4
:101B0000E86AA16900F0F000884225D1E86AA1697D
:101B100020F0F0000843E862E86A616920F4704050
:101B20000843E8621649C1F87090FFF7FFFD0646CA
:101B300008E004E0FFF7FAFD801B642802D90320C7
:101B4000BDE8F88328688000F4D507E0E86A616999
:101B500000F47040884201D00120F1E72078C006EF
:101B600005D56868E16920F48000084368600020BA
:101B7000E6E70000001002400070004040044242CE
:101B8000000042422DE9F047DFF83C8105460E4651
:101B9000D8F8000000F00700B0420CD2D8F80010CE
:101BA00021F007013143C8F80010D8F8000000F018
:101BB0000700B04263D12878444C800705D560689F
:101BC000A96820F0F000084360602878C00745D07D
:101BD0006868012816D02168022816D089070029D4
:101BE0004DDA616821F0030101436160FFF79EFD5A
:101BF0006968074641F2883001290FD002298146E1
:101C000019D027E021688903E9E78901E7E700BFE8
:101C1000FFF78CFDC11B494501D918E0814660687A
:101C2000C0F381000128F3D118E000BFFFF77EFD6B
:101C3000C11B49450BD86068C0F381000228F5D16B
:101C40000CE000BFFFF772FDC11B494502D903201C
:101C5000BDE8F087606810F00C0FF3D1D8F80010E1
:101C6000404601F00701B1420BD9016821F007019C
:101C700031430160006800F00700B04201D001204C
:101C8000E6E72878400705D56068E96820F4E06059
:101C9000084360602878000706D56068296920F449
:101CA000605040EAC100606000F03CF86168084A9A
:101CB000C1F30311515CC840064908600020FFF7DA
:101CC00055FD0020C4E70000002002400010024043
:101CD000DA3B00084000002001480068704700001F
:101CE000400000200448054900684968044AC1F3DF
:101CF0000221515CC84070474000002000100240A3
:101D0000EA3B00080448054900684968044AC1F3F1
:101D1000C221515CC84070474000002000100240C2
:101D2000EA3B0008F0B523A289B00FCA04AC84E8EE
:101D30000F0024A10FC98DE80F0026494A682648E4
:101D400002F00C03042B2FD0082B2DD104A8C2F3D2
:101D50008343C45CD00329D5C86A00F00F001DF886
:101D60000020C86AC00316D5C86AC96AC0F3031048
:101D7000C1F30321401C891CA0FB0223A1FB041614
:101D8000154F0025A1FB070C06FB07C601FB0561EB
:101D9000FEF7FAF903E010486043B0FBF2F09DF85B
:101DA0001D10A14200D1400809B0F0BD0B486043AE
:101DB000FAE700000000040506070809000000001B
:101DC000000D00000102030405060708090A0B0CB8
:101DD0000D0E0F100010024000127A0000093D00A5
:101DE0002DE9F84F04460078EA4DC00748D06868EE
:101DF000C0F38100012807D06868C0F38100022881
:101E000009D16868C00306D52868800338D5A06862
:101E100000286FD034E0A068B0F5803F0BD010B13F
:101E2000B0F5A02F11D0286820F4803028602868F1
:101E300020F4802002E0286840F480302860A06808
:101E400088B1FFF773FC064609E0286840F480205B
:101E50002860F0E7FFF76AFC801B642878D82868C0
:101E60008003F7D50CE0FFF761FC064605E000BFF4
:101E7000FFF75CFC801B6428F0D828688003F7D447
:101E80002078C54E80074FF001094FF000073CD580
:101E9000686810F00C0F07D06868C0F38100022852
:101EA00009D16868C00306D42868800715D5606921
:101EB00001281FD111E06069B8B1C6F80090FFF7A2
:101EC00035FC804606E000BFFFF730FCA0EB0800C1
:101ED0000228C3D828688007F6D52868A16920F0B1
:101EE000F80040EAC10028600FE03760FFF71EFCF1
:101EF000804607E02DE100BFFFF718FCA0EB0800CB
:101F00000228ABD828688007F6D4207800072ED5A1
:101F1000A248E169E9B1C0F80090FFF707FC8046EC
:101F200006E000BFFFF702FCA0EB0800022895D8EE
:101F3000686A8007F6D59A484FF4FA510068B0FBFA
:101F4000F1F0009000BF0098411E0091FAD20EE01F
:101F5000B0E00760FFF7EAFB804605E0FFF7E6FB2D
:101F6000A0EB0800022887D8686A8007F6D420789A
:101F7000400763D5E8694FF00008C00009D4E8695C
:101F800040F08050E861E8694FF0010800F08050AF
:101F9000009084480168C90512D40168834641F461
:101FA00080710160FFF7C2FB824605E0FFF7BEFBD0
:101FB000A0EB0A0064287DD8DBF80000C005F5D549
:101FC000206901280AD008B1052813D0286A20F01A
:101FD00001002862286A20F0040002E0286A40F02C
:101FE00001002862206941F2883B98B1FFF79EFB0F
:101FF00082460BE0286A40F004002862EEE700BF4A
:10200000FFF794FBA0EB0A01594553D8286A8007D3
:10201000F6D50CE0FFF78AFB824605E0FFF786FB6A
:10202000A0EB0A01594545D8286A8007F6D4B8F1D3
:10203000000F03D0E86920F08050E861E06AD0B377
:102040006968C90307D56968C1F38101022902D112
:10205000E96AC9037DD4022808D0E86A20F48030F8
:10206000E862B766FFF762FB80463BE02868C00085
:1020700005D5E86A616B00F0F000884269D1B76667
:10208000FFF754FB804605E0FFF750FBA0EB08008C
:10209000642874D828680001F6D4E86A616B20F0DF
:1020A000F0000843E862E86A216B20F4706008439E
:1020B000E86201E063E018E0C6F86890FFF736FBDD
:1020C000804605E0FFF732FBA0EB0800642856D8F5
:1020D00028680001F6D508E0FFF728FBA0EB080010
:1020E00064284CD828680001F6D4206A90B3696847
:1020F000C1F3810102294AD00228376603D0FFF7D5
:1021000015FB04463EE0FFF711FB074605E000BF64
:10211000FFF70CFBC01B022831D828688001F7D4D8
:10212000606AB0F5803F09D1E86A61680843E862F7
:10213000E86AE16820F00F000843E862D4E9090189
:102140000843696821F4741108436860C6F8609018
:1021500001E01CE019E0FFF7E9FA044605E000BFE2
:10216000FFF7E4FA001B022809D828688001F7D598
:102170000BE000BFFFF7DAFA001B022802D90320A8
:10218000BDE8F88F28688001F4D40020F8E701202A
:10219000F6E7000000100240000042428004424284
:1021A00040000020007000402DE9F04791460C46A9
:1021B0005FEA00084AD084B3D8F8000040684007BE
:1021C00044D4404600F08AFF4FF461620546B0FBFC
:1021D000F2F1B0FBF2F302FB13503C23B0FBF3F03F
:1021E000B5FBF2F6607002FB1650B0FBF3F203FB96
:1021F0001200A070182931D31820B1FBF0F7B1FB01
:10220000F0F200FB12102070404600F060FF411C0D
:1022100004D0A84202D9461B02E017E04FF0FF3677
:10222000A7EB071000EB4000C0EB001005EBC0155A
:102230002946404600F0A1FF40B9701C01D0711939
:1022400000E03146404600F084FF10B10120BDE8B7
:10225000F0873946404600F0AEFE00E02170B9F14B
:10226000000F0BD0207800F09BFE2070607800F00B
:1022700097FE6070A07800F093FEA0700020E6E763
:1022800070B5040003D0607C002610B105E0012089
:1022900070BD2674204600F043F80220607420468A
:1022A00000F0AEF8042578BB204600F0DBFE58BBFA
:1022B0002068416821F007014160A06820B11748FB
:1022C000016821F0010101601448001F0168A26843
:1022D00021F46071114301606068411C04D1012048
:1022E000FFF7EEFA80B1401E21688A6822F00F02E3
:1022F00042EA10428A602168CA6860F30F02CA602D
:10230000204600F0C9FE08B16574C0E7E6730120FD
:102310006073A0736074002070BD0000306C0040DA
:1023200008B50068084988420DD1FFF7C3FA07488D
:10233000C16941F00061C161C069054900F00060F8
:1023400000900120086008BD0028004000100240F5
:102350003C0442422DE9F0410D46040024D01DB357
:10236000207C012823D04FF0010884F8108002203F
:1023700060742878EAB100F00AFE4FF4616100FB56
:1023800001F6687800F003FEC0EB001006EB800653
:10239000A87800F0FCFD35182946204600F0EDFE37
:1023A0000026042710BB0FE00120BDE8F0810220C9
:1023B000FBE74FF4616148436978C1EB011100EB21
:1023C0008100A9784518E7E72068416821F00501F8
:1023D0004160204600F07BFE411C0AD0A84208D292
:1023E00006490144204600F0B4FE10B1677426741B
:1023F000DAE784F8118026740020D6E780510100C6
:1024000070B504000AD02068416821F008014160DD
:10241000FFF78CF905464FF47A7608E0012070BD8D
:10242000FFF784F9401BB04201D9032070BD20683A
:1024300040680007F4D5002070BD704738B50446E9
:102440000068426881684B0605D4CB0703D0530669
:1024500001D5216C04E08B0707D5130605D5616C07
:1024600001B02046BDE83040084711F0600F3FD072
:1024700093063DD54B060AD594F85130032B34D042
:10248000636D43F004036365C36883680093890642
:1024900009D5616D41F001016165816800910168B4
:1024A00021F040010160606D002821D02068416862
:1024B00021F0E0014160012084F85100900718D01C
:1024C0002068416821F0030141600C4DE06C18B1B7
:1024D0004563E06CFEF7A6FFA06C002808D04563BA
:1024E000A06CBDE83840FEF79DBFC16880680090D1
:1024F00038BD2046FFF7A1FF38BD0000D1310008EC
:1025000070B5040005D00025A56294F8510010B103
:1025100004E0012070BD204600F034F8022084F869
:1025200051002068016821F040010160D4E90101F7
:102530000843D4E903121143084361690843218B1E
:1025400001F400710843E1690843216A0843A16A64
:10255000084321680860A069042101EA1040616A0B
:102560000843216848602168E06A08612068C16901
:1025700021F40061C1616565012084F851000020EB
:1025800070BD000010B50068164986B0884226D19B
:102590001548C16941F48041C161C069134C00F420
:1025A000804004904FF420400090022001900320CE
:1025B000039069462046FEF7CDFF00214FF480408E
:1025C000CDE90001029169462046FEF7C3FF0022D3
:1025D00011462420FFF73CF92420FFF72DF906B01F
:1025E00010BD00000038004000100240000C014007
:1025F0002DE9F84F044690F85000002699461746FA
:102600000D4601280DD04FF0010B84F850B0FFF7B4
:102610008DF8804694F85100B246012804D0022675
:1026200094E00220BDE8F88F002D7BD0002F79D0F8
:10263000032084F85100C4F854A02563A786E786D8
:10264000C4F838A0A4F83CA0A4F83EA0C4F844A064
:10265000C4F840A0A068B0F5004F04D1206801681C
:1026600041F48041016020680168490603D4016893
:1026700041F040010160E068B0F5006F606804D08F
:1026800030B3E08E012823D03EE010B1E08E012867
:102690001AD135F8021B206805E020688168890797
:1026A00006D535F8021BC160E08E401EE0860BE0C7
:1026B000B9F1000F34D0B9F1FF3F05D0FFF736F87C
:1026C000A0EB080149452BD2E08E0028E5D11EE0A1
:1026D000216815F8010B087306E0206881688907F6
:1026E00006D515F8011B0173E08E401EE0860BE055
:1026F000B9F1000F14D0B9F1FF3F05D0FFF716F87C
:10270000A0EB080149450BD2E08E0028E5D14B46ED
:10271000012202212046CDF8008000F061FD10B1B9
:10272000032613E011E042464946204600F040FDF2
:1027300018B101262020606508E0A06818B920685B
:10274000C16880680090606D00B1012684F851B0C6
:1027500084F850A0304665E72DE9F84F044690F81C
:10276000500000260A9F9A4693460D464FF00108F6
:1027700001280ED0012084F85000FEF7D7FF8146D3
:1027800094F85100616801280CD0B1F5827F07D11F
:1027900002E00220BDE8F88FA16809B9042801D041
:1027A0000226BDE055B1BBF1000F07D0BAF1000F12
:1027B00004D094F85100012802D004E00126AFE0D3
:1027C000052084F8510000206065C4F838B0A4F8F2
:1027D0003EA0A4F83CA02563A4F836A0A4F834A039
:1027E0002064606420680168490603D4016841F0F0
:1027F00040010160E068B0F5006F606804D0E8B3A4
:10280000E08E01283BD06AE010B1E08E01282ED185
:10281000216835F8020BC860E08E401EE08626E095
:10282000B8F1000F0DD0E08E58B12068816889079B
:1028300007D535F8021BC160E08E401EE0864FF0E0
:102840000008E08F58B120688168C90707D0C068C8
:102850002BF8020BE08F401EE0874FF00108781C38
:1028600005D0FEF763FFA0EB0900B84246D2E08E28
:102870000028D5D1E08F0028D2D136E0FFE72168CB
:1028800015F8010B0873E08E401EE08627E000BFBC
:10289000B8F1000F0DD0E08E58B12068816889072B
:1028A00007D515F8011B0173E08E401EE0864FF03E
:1028B0000008E08F58B120688168C90707D0C06858
:1028C0000BF8010BE08F401EE0874FF00108781CE9
:1028D00005D0FEF72BFFA0EB0900B8420ED2E08E28
:1028E0000028D5D1E08F0028D2D13B460122022119
:1028F0002046CDF8009000F073FC08B103260FE0ED
:102900004A463946204600F053FC18B101262020E3
:10291000606505E0A06818B92068C168806800900B
:10292000012084F85100002084F85000304631E73F
:102930004FF0E0210428086903D020F0040008616A
:10294000704740F00400FAE7704710B5401EB0F140
:10295000807F01D3012010BD4FF0E02460610F2182
:10296000601700F003FB0020A06107202061002019
:1029700010BD10B5FFF7E8FF10BD7047704730B5C8
:1029800090F83C20012A20D0012280F83C2002232C
:1029900080F83D3003685C6824F070045C60036874
:1029A0005C680D682C435C6003689C6824F08004BC
:1029B0009C6003689C6849680C439C6080F83D20DB
:1029C000002180F83C10084630BD022030BD10B513
:1029D000040003D094F83D0010B107E0012010BDC1
:1029E000002084F83C00204600F00CF8022084F817
:1029F0003D00211D206800F015FE012084F83D00F7
:102A0000002010BD08B50068B0F1804F12D10A480F
:102A1000C16941F00101C161C069002200F00100FB
:102A2000009011461C20FEF713FFBDE808401C2053
:102A3000FEF702BF08BD0000001002400168CA682E
:102A400042F00102CA600068016841F001010160C2
:102A50000020704770B5044690F83C00012817D05C
:102A6000012584F83C50022084F83D0020688268EB
:102A700022F0770222F47F4282600868502837D023
:102A80000DDC202859D005DC88B3102841D151E055
:102A9000022070BD302853D040283AD13FE0602852
:102AA0002ED070280BD0B0F5805F03D0B0F5005F5A
:102AB0002FD110E02068816821F0070115E0CB6874
:102AC000D1E90121206800F0EBFD2168886840F021
:102AD000770088601DE0CB68D1E90121206800F013
:102AE000DFFD2068816841F48041816011E01EE0D3
:102AF000CA684968206800F0E5FD5021206806E0BA
:102B0000CA684968206800F0EEFD6021206800F086
:102B1000D1FD84F83D50002084F83C0070BDCA68A7
:102B20004968206800F0CEFD40212068EFE70021D1
:102B30002068ECE710212068E9E720212068E6E71B
:102B400030212068E3E7704770B5044600680169EA
:102B50004FF00005C943890715D4C168C9438907E7
:102B600011D4E91E01610120207720688069800767
:102B7000204602D0FFF7E7FF04E000F098F8204677
:102B800000F096F8257720680169C943490717D4F2
:102B9000C168C943490713D46FF0040101610220E1
:102BA00020772068806910F4407F204602D0FFF72C
:102BB000CAFF04E000F07BF8204600F079F82577A2
:102BC00020680169C943090716D4C168C9430907C8
:102BD00012D46FF008010161042020772068C069D9
:102BE0008007204602D0FFF7AEFF04E000F05FF858
:102BF000204600F05DF8257720680169C943C906C1
:102C000017D4C168C943C90613D46FF0100101611C
:102C1000082020772068C06910F4407F204602D049
:102C2000FFF791FF04E000F042F8204600F040F882
:102C3000257720680169C943C90708D1C168C9431C
:102C4000C90704D1891E0161204600F032F82068CE
:102C50000169C943090609D4C168C943090605D4F5
:102C60006FF0800101612046FFF787FE206801694F
:102C7000C943490609D4C168C943490605D46FF060
:102C800040010161204600F015F820680169C94340
:102C900089060BD4C168C943890607D46FF02001A7
:102CA00001612046BDE87040FFF768BE70BD704707
:102CB00070477047704770B5040004D094F839002D
:102CC000002510B106E0012070BD84F83850204680
:102CD00000F022F8242084F839002068C16821F42B
:102CE0000051C160204600F011FD2068016921F407
:102CF000904101612068416921F02A014161206809
:102D0000C16841F40051C160E563202084F83900B6
:102D100084F83A00002070BD10B50068114986B0F3
:102D200088421CD11048C16941F40031C161C069B9
:102D30000E4C00F40030049004200090022001901A
:102D40000320039069462046FEF704FC002108207A
:102D5000CDE90001029169462046FEF7FBFB06B073
:102D600010BD000000440040001002400008014077
:102D7000FEE700000D4810B50B49016006214160D7
:102D800000214FF400228160C0E903125200C0E923
:102D90000521C161016241628162C162FDF756FF96
:102DA000002800D0FEE710BD00640040480000206D
:102DB0002DE9F043434885B0816941F010018161FC
:102DC000816901F010010491816941F02001816164
:102DD000816901F020010491816941F00401816160
:102DE000816901F004010491816941F00801816168
:102DF0008069354F00F0080042F220040490002260
:102E000021463846FEF78DFCDFF8C0800022B02155
:102E10004046FEF786FCDFF8B890002202214846C3
:102E2000FEF77FFC0125CDE9004500240226CDE90F
:102E3000024669463846FEF78DFBB020CDE9000515
:102E4000CDE9024669464046FEF784FB4020CDE9C5
:102E50000004694640460294FEF77CFB1020CDE951
:102E60000004694638460294FEF774FBCDE900542D
:102E7000694648460294FEF76DFBCDE90065CDE951
:102E8000024669464846FEF765FB4FF460708DE8E0
:102E9000310069463846FEF75DFB4FF4F8508DE887
:102EA000310069464046FEF755FBE02000901220B5
:102EB00001900320039069464846FEF74BFB05B09E
:102EC000BDE8F083001002400010014000080140FE
:102ED000000C01400F4810B50D4901604FF482719C
:102EE0004160002102228160C0E903120122426197
:102EF000520282613822C0E90721416281620A21BF
:102F0000C162FFF7FDFA002800D0FEE710BD000007
:102F100000380040A000002030B512484FF080413A
:102F200087B08D14C0E9001500244FF6FF71C0E989
:102F3000024104618461FFF74AFD00B1FEE7694682
:102F400008480095FFF786FD00B1FEE7049404A948
:102F500004480594FFF713FD002800D0FEE707B0F2
:102F600030BD0000F8000020FEE770470907090E99
:102F7000002806DA00F00F0000F1E02080F8141DB0
:102F8000704700F1E02080F8001470477047010995
:102F900001EB810100F00F0000EB4100C0B270476F
:102FA000002102E00A38C0B2491C0A28FAD20907F7
:102FB00040EA116070472DE9F04104460025C07BCE
:102FC000627BA37B42E0012A16D0032A14D0052A93
:102FD00012D0072A10D0082A0ED00A2A0CD00C2AA8
:102FE0000AD0042A10D0062A0ED0092A0CD00B2AA7
:102FF0000AD0022A0DD028E01F2B0CD30C2A05D1B1
:1030000001221346401C20E01E2B04D30123521C36
:103010001BE01C2B02D203F1010316E011D183B295
:103020009E0710D16426B3FBF6F706FB173636B9B8
:103030004FF4C876B3FBF6F706FB17331BB91D2315
:1030400003E01D2B01D1032201236D1C8D42BAD355
:10305000D1B2E0736173DAB2A27300F04FF820735B
:10306000BDE8F08170B50446FEF760FB05464FF4FD
:103070007A7606E0FEF75AFB401BB04201D90320E6
:1030800070BD206840688006F4D52068416841F032
:1030900010014160002070BD70B5044600684168B1
:1030A00021F010014160FEF741FB05464FF47A76AE
:1030B00007E000BFFEF73AFB401BB04201D90320F6
:1030C00070BD206840688006F4D5002070BD01689E
:1030D000086A496A89B241EA00407047006881691C
:1030E0008AB2C1698BB2816989B28A4203D0C06950
:1030F00061F31F40704743EA02407047F0B5642413
:10310000C1EBC1030927A500072603EB011303291F
:10311000B3FBF7F100F5FA60114401440AD2401EF6
:10312000B0FBF4F201EB9001B0FBF5F0891A084412
:10313000001D08E0B0FBF4F201EB9001B0FBF5F0EC
:10314000891A0844801CB0FBF6F106FB1100C0B2DE
:10315000F0BD70B50D4606460024FFF783FF48B961
:103160003168280C08623168A8B248623046FFF71F
:1031700093FF00B10124204670BD70B50D46064690
:103180000024FFF76FFF48B93168280C8861316867
:10319000A8B2C8613046FFF77FFF00B10124204686
:1031A00070BD00000148FFF749B90000A0000020F1
:1031B00038B50B46009204460022802100F010F83A
:1031C000002804D0606D40F020006065032038BD09
:1031D00010B5406A0021C187C186FFF72EF910BDE6
:1031E0002DE9F0411D4617460E460446DDF81880CD
:1031F00035E0681C33D02DB1FEF798FAA0EB08003B
:10320000A8422CD32068416821F0E0014160606849
:10321000B0F5827F0BD1A068B0F5004F02D0B0F5B9
:10322000806F04D12068016821F040010160A06A2C
:10323000B0F5005F0AD1206801684DF6FF721140B9
:1032400001602068016841F400510160012084F8A8
:103250005100002084F850000320BDE8F081206870
:10326000806836EA000004D00020B842C1D10020B6
:10327000F3E70120F9E7704710B5FEF75DFABDE806
:103280001040FFF776BB000070B59CB0092000909D
:1032900001244FF4A020CDE9020402262004CDE948
:1032A00008600025059401954FF4E010CDE90A056A
:1032B00007946846FEF794FD00B1FEE70F200E90DC
:1032C000CDE90F65119501210EA81295FEF75AFC64
:1032D00000B1FEE74FF40070CDE9134013A8FEF7EC
:1032E0008DFB00B1FEE7FEF7F7FC4FF47A71B0FBFF
:1032F000F1F0FFF72AFB0420FFF71AFB04480467EC
:1033000000221146501EFEF7A3FA1CB070BD00004B
:10331000000042421048016841F00101016041682B
:103320000E4A1140416001680D4A11400160016878
:1033300021F480210160416821F4FE0141600168AF
:1033400021F0A05101604FF47F0181600021C16232
:103350000449C00308607047001002400000FFF0FD
:10336000FFFFF6FE08ED00E02DE9F05F2021964812
:10337000FEF7D3F9954C9648217801709548FFF7F0
:10338000E3FB954800F08AFA944800F087FA9248E7
:1033900000F092FB924D2860904800F08DFB914F19
:1033A000DFF84482DFF844B2386098F8000020B3B8
:1033B0008F4800F073FA8E4800F07EFB8D494FF085
:1033C000FF36086001468C48007850B19BF8000039
:1033D00098B93868FCF719FF3146FCF76EFF87494A
:1033E0000AE09BF8002042B138B92868FCF70DFFCD
:1033F0003146FCF762FF8249086082480026007867
:1034000000287CD098F800107F48DFF80082DFF8B1
:1034100000924FF0010A31B177490978E9B39BF87E
:10342000001059B3A2E02178F1B901683868FCF7BF
:10343000ECFE2968FDF7FEF80FD8D8F800102868D0
:10344000FDF702F909D8D9F800103868FDF7F2F84D
:1034500003D884F800A0012201E0267000224FF476
:1034600000516C48FEF75DF9207801287ED16A484A
:1034700001685FE084F800A0012272E0217809BBB6
:103480005E4F01683868FCF7C0FE2968FDF7D2F886
:1034900011D8D8F80010286800E01DE0FDF7D4F836
:1034A00009D8D9F800103868FDF7C4F803D884F8B3
:1034B00000A0012201E0267000224FF4005155487F
:1034C000FEF72FF92078012850D153480168286869
:1034D000FCF79BFE494F30E09BF80020F2B3E9BBBC
:1034E000217809BB01683868FCF78FFE444D2968D4
:1034F000FDF7A0F811D8D8F80010286800E02CE0FB
:10350000FDF7A2F809D8D9F800103868FDF792F84D
:1035100003D884F800A0012201E0267000224FF4B5
:1035200000513C48FEF7FDF8207801281ED13A48AA
:10353000334D01682868FCF768FE3968FDF77AF8B2
:103540000BD9D8F800102868FDF774F805D3D9F81E
:1035500000103868FDF778F88CD200E006E026709D
:1035600000224FF400512B48FEF7DBF8184F7D1C6A
:10357000387850B92078012807D1AE706E702E705F
:10358000012229462548FEF7E5FE2078002819D1BA
:103590003878012816D10E490122491C1F48FEF730
:1035A00003FE68782978C0EB0010C1EB411280005F
:1035B000C2EB012100EB01111948AA7803681A44F3
:1035C00011440160BDE8F09F0008014000000020A8
:1035D00030000020F800002078010020A001002029
:1035E000080000201000002002000020030000203E
:1035F000C801002028000020040000201400002042
:103600000C000020010000202000002018000020F5
:103610001C00002000100140240000208C0000202D
:103620002C000020F0B50268194B1A4C1A4D1B4EA5
:103630004FF08047984207D0B84205D0A04203D04F
:10364000A84201D0B04204D122F0700C4A6842EA8C
:103650000C02984207D0B84205D0A04203D0A8423D
:1036600001D0B04203D122F44074CA68224322F050
:1036700080044A69224302608A68C2620A688262E0
:10368000984201D10969016301214161F0BD000047
:10369000002C01400004004000080040000C0040E5
:1036A00010B5846842EA032224F47F440A4322438B
:1036B000826010BD826822F070020A4342F0070166
:1036C0008160704710B5036A046A24F00104046243
:1036D000846924F0F00444EA021423F00A020A4345
:1036E0008461026210BD10B5036A23F01003036207
:1036F0008369046A23F4704343EA023224F0A0038E
:1037000043EA01118261016210BD00002DE9F04120
:10371000044600680169E26821F4405111430161E7
:103720002169A0680843616908432168CA6841F2B9
:103730000C639A430243CA6020684169A26921F47C
:103740004071114341614C4920686425322688420A
:103750003CD1FEF7D7FA00EBC00101EB0010616825
:103760008900B0FBF1F7FEF7CDFA00EBC00101EBE9
:1037700000106168B0468900B0FBF1F0B0FBF5F0D5
:103780006FF01801484307EB800106EB0110B0FB16
:10379000F5F000F0F006FEF7B5FA00EBC00101EB22
:1037A000001061688900B0FBF1F0B0FBF5F006EBAA
:1037B0000016FEF7A7FA00EBC00101EB00106168EC
:1037C0008900B0FBF1F7FEF79DFA3BE0FEF78AFABD
:1037D00000EBC00101EB001061688900B0FBF1F75C
:1037E000FEF780FA00EBC00101EB00106168B04603
:1037F0008900B0FBF1F0B0FBF5F06FF01801484321
:1038000007EB800106EB0110B0FBF5F000F0F006CD
:10381000FEF768FA00EBC00101EB00106168890057
:10382000B0FBF1F0B0FBF5F006EB0016FEF75AFA2C
:1038300000EBC00101EB001061688900B0FBF1F7FB
:10384000FEF750FA00EBC00101EB0010616889003F
:10385000B0FBF1F0B0FBF5F06FF01801484307EB57
:10386000800108EB0110B0FBF5F0216800F00F00BB
:1038700030448860BDE8F08100380140FEE702E096
:1038800008C8121F08C1002AFAD1704770470020EB
:1038900001E001C1121F002AFBD1704710B5044698
:1038A000838802688168072000F059F984F82000B5
:1038B000002802D0012084F8200010BD38B504464D
:1038C0008088009080202368A26800F067F9A088B3
:1038D00000907F2183202368A26800F05FF9A08810
:1038E0000090FF2184202368A26800F057F9A08887
:1038F0000090002185202368A26800F04FF9A0887D
:103900000090FF2186202368A26800F047F938BDA7
:10391000FDF71AFFFFF7B8FCFFF74AFA4F484E4988
:10392000002401604FF41651C0E901140C21C46059
:10393000C0E904418461C461FFF7BDF900B1FEE74D
:1039400046484749AC3801604FF0FF3141604FF4C1
:1039500080718160FEF794FC00B1FEE7FFF7DCFAAE
:10396000FFF708FAFFF7B6FA3C498022983901F1CF
:10397000D8004023816082803A4A02600382C2609C
:10398000394B0022C0E90623503002228160828038
:10399000364A012502600582C2600022C0E9062382
:1039A0002838102281602021818031490160028203
:1039B000C16000211A46C0E9061283212838FFF7AA
:1039C0007DFF264883216830FFF778FF2348403089
:1039D000FFF764FF21486830FFF760FF1F4A254961
:1039E000DC32A2F5E6700263C9884B1C1360026BDF
:1039F0005460026BD460026B9460036B05221A6101
:103A000000F5D47242639460426B1462406B41F0E3
:103A10000F025201C56111484901F830426001F1BD
:103A2000E0020260C0E9055401F5B071C0E902414D
:103A3000C4610E210461C0E908510146A0F5F4708B
:103A4000FCF770FF05480021F038FDF7D5F9034871
:103A50004038FEF7F3FFFEE7004400403801002045
:103A6000002800400008014000E07A40000C0140BE
:103A7000001001400000002038B504468088009006
:103A8000A32180202368A26800F088F8218AE068DA
:103A9000FDF73EFE0128F9D0A38801202268A16825
:103AA00000F05DF80502A38802202268A16800F0FA
:103AB00056F82843400838BD10B50446FFF7DCFF30
:103AC000FCF78FFD0022094BFCF71CFDD4E906230F
:103AD000FCF7A6FC0022064BFCF79CFC054A064BB3
:103AE000FCF79EFCBDE81040FCF788BDC0FFDF403E
:103AF000000059402DB29DEFA7C6044090F83C103D
:103B0000122928D0222180F83C100021016401688C
:103B10004A6942F480724A6101684A6942F400725B
:103B20004A6101684A6942F480624A6101684A69EF
:103B300042F400624A6101684A6942F400424A6103
:103B400001684A6942F480724A610068416941F043
:103B5000020141617047422180F83C10F5E7FEB553
:103B600015468DF8040000200E468DF8050002462B
:103B70001C4619462846FDF7D4FD4FF0FF30009053
:103B8000022302AA01A93046FEF7E6FD01222146E2
:103B90002846FDF7C6FD9DF80900FEBD2DE9FF4151
:103BA00015460A9F1C46002239461846FDF7B9FD06
:103BB0004FF0FF363346012269462846FEF718FDCE
:103BC0003346012201A92846FEF712FD012239469B
:103BD0002046FDF7A6FDBDE8FF81000000000000C3
:103BE00000000102030406070809000000000102AA
:103BF00003040000143C0008000000204400000002
:103C00007E380008583C00084400002014060000DC
:103C10008E380008000000000000230100000000B2
:103C2000000000000000000000000000000048420A
:103C30000000B442000020410000004000000000ED
:103C40000000000000000000010000001000000063
:083C50000000000000A24A047C
:04000005080001519D
:00000001FF
