:020000040800F2
:1000000078050020010100089F1D0008A51B0008BD
:100010009D1D000891050008ED2300080000000068
:10002000000000000000000000000000971E000813
:100030009305000800000000C11D0008991E00087B
:100040001B0100081B0100081B0100081B01000820
:100050001B0100081B0100081B0100081B01000810
:100060001B0100081B0100081B0100081B01000800
:100070001B0100081B0100081B0100081B010008F0
:100080001B0100081B0100081B0100081B010008E0
:100090001B0100081B0100081B0100081B010008D0
:1000A0001B0100081B0100081B0100081B010008C0
:1000B000551F00081B0100081B0100081B01000858
:1000C0001B0100081B0100081B0100081B010008A0
:1000D000C51D00081B010008552300081B0100086E
:1000E0001B0100081B0100081B010008DFF80CD0F1
:1000F00000F03CFA004800470D2400087805002075
:100100000648804706480047FEE7FEE7FEE7FEE7B1
:10011000FEE7FEE7FEE7FEE7FEE7FEE70D1F00084D
:10012000ED000008202A04DB203A21FA02F0002129
:10013000704721FA02F3D040C2F1200291400843F7
:10014000194670472DE9FE4F804681EA0300C00F33
:100150000C46009021F0004123F00045B8EB02006E
:10016000A94105D24046214690461C460B46024610
:1001700023F00040104347D0270DC7F30A00C3F314
:100180000A510290401A019040286BDAC3F3130021
:1001900040F4801B0098924620B10023D2EB030A62
:1001A00063EB0B0B01985946C0F14002504600F03A
:1001B0005EF906460D4650465946019A00F066F92A
:1001C00010EB08006141002487EA115284EAE773CA
:1001D0001A4340D0009A62B3019A012A4FEA0752AB
:1001E00015DC001B61EB02014FF0004202EA0752EE
:1001F000CDE90042001C41F5801132462B4600F04B
:1002000066F903B0BDE8F08F40462146F9E7001BD0
:1002100061EB0201001C41F5801300185B412018BE
:10022000A2F5001747EB030140EAD570B6196D41FE
:1002300011E06D084FEA360645EAC0754FEA0752ED
:10024000001B61EB0201001C41F5801149084FEAD7
:1002500030000019514132462B4603B0BDE8F04F43
:1002600000F026B90098012240000023D0EB0202E2
:1002700063EBE073009821464FEAE074B8EB0000AE
:1002800061EB0401E9E783F000435BE781F00041A3
:1002900058E72DE9FE4F81EA030404F0004421F001
:1002A000004100944FF0000B23F0004350EA01049A
:1002B0005ED052EA03045BD0C3F30A54C1F30A557B
:1002C0002C44A4F2F3340194A0FB0254C1F31301B3
:1002D00041F48011C3F3130343F4801301FB024480
:1002E00000FB034E840A970A44EA815447EA835785
:1002F000A4FB076802958D0A05FB07854FEA932C3E
:1003000004FB0C542705029D4FEA065847EA1637AE
:10031000B5EB08056EEB070C870E920E47EA8117C6
:1003200042EA8312A7FB0201B6EB0B0164EB000467
:100330002B0D43EA0C335E1844EB1C50DA46514651
:10034000E7FB0201C5F313044FEA0B3343EA1453EE
:100350004FEA0432019C43EA0603A4F10C04029420
:10036000009CCDE900B400F0B2F803B0BDE8F08F16
:1003700000200146F9E72DE9F04D81EA030404F07D
:10038000004B21F0004514464FF0000A23F00041D5
:1003900050EA050220D054EA01021DD0C5F30A57E5
:1003A0000246C5F31303C1F31300C1F30A5640F428
:1003B000801543F48013A7EB0608101BD64608F2FD
:1003C000FD3873EB050002D308F1010801E0921833
:1003D0005B41B8F1000F03DA00200146BDE8F08D63
:1003E00000204FF48011064684460EE0171B73EB85
:1003F000050705D3121B63EB050306434CEA010C0A
:1004000049084FEA300092185B4150EA0107EDD1EC
:1004100052EA030012D082EA040083EA050108438D
:1004200005D0101BAB4106D20122002306E00022BA
:100430004FF0004302E06FF0010253101AEB060088
:100440004CEB085110EB0A0041EB0B01BDE8F04DFD
:1004500000F02EB80EB540F2334102910021CDE9F3
:1004600000110A460B4600F032F803B000BD202A06
:1004700004DB203A00FA02F1002070479140C2F1FB
:10048000200320FA03F3194390407047202A06DB2B
:10049000CB17203A41FA02F043EAE07306E041FA52
:1004A00002F3D040C2F12002914008431946704740
:1004B00010B5141E73F1000408DA401C41F100016C
:1004C00092185B411A4301D120F0010010BD2DE9C3
:1004D000F04D92469B4611B1B1FA81F202E0B0FABA
:1004E00080F220329046FFF7C2FF04460F4640EAF2
:1004F0000A0041EA0B0153465A46084313D01146FD
:1005000053EA010019D0C8F140025046FFF70AFE35
:1005100005460E46504659464246FFF7A8FF084397
:1005200005D0012004E020463946BDE8F08D0020CA
:10053000054346EAE0762C4337430A986305E40A0C
:10054000A0EB08000022FD0A44EA47540A3002D515
:1005500000200146E9E7010510196941DDE9084578
:1005600000196941BDE8F04DA2E70000064C074DB7
:1005700006E0E06840F0010394E807009847103473
:10058000AC42F6D3FFF7B6FDB0250008D025000831
:10059000FEE770472DE9F04104004FF0000504D05C
:1005A00094F83C00002618B107E00120BDE8F08176
:1005B00084F83D60204600F083F8022084F83C0077
:1005C0002068016821F0020101602068016841F0A3
:1005D0000101016000F0E4F907464FF0030804E070
:1005E00000F0DEF9C01B0A2853D820684068C00715
:1005F000F6D021684868C00758D0A069012801D109
:1006000045F08005E06901282FD025F04000226ADE
:10061000012A2DD020F02000626A012A2BD020F080
:100620001000A26A012A29D020F00800E26A012AFB
:1006300027D020F004000A6822F0FC0202430A607E
:10064000D4E902010843D4E9041211430843616864
:10065000491E08432168C8612068016821F0010132
:10066000016000F09DF9054618E045F04000CEE736
:1006700040F02000D0E740F01000D2E740F0080042
:10068000D4E740F00400D6E700F08AF9401B0A28BE
:1006900004D904F83C8F0320667087E7206840681F
:1006A000C007F1D120684068C00703D0042084F857
:1006B0003C007AE72664012084F83C00002075E7BE
:1006C00010B50068164986B0884226D11548C16920
:1006D00041F00071C161C069134C00F000700490DA
:1006E0004FF48070009000200190029069462046EF
:1006F00000F06AF86015009002200190032003903A
:100700006946204600F060F80848416821F4C0417D
:1007100041F0E06141F48041416006B010BD00004D
:100720000064004000100240000C01400000014045
:1007300010B590F821100024022903D00421816310
:1007400001243DE001680A6822F00E020A60016897
:100750000A6822F001020A601A4A0168914201D136
:10076000012121E0174A1432914201D110211BE0EE
:10077000144A2832914201D1891515E0114A3C32C0
:10078000914201D189140FE00E4A5032914202D1B8
:100790004FF4803108E00B4A6432914202D14FF4A9
:1007A000801101E04FF08071064A083A5160012142
:1007B00080F82110002180F82010416B01B188479A
:1007C000204610BD080002402DE9F84FDFF890A147
:1007D00000220AF1040B144601274FF00F090BF118
:1007E000040E00BF0B6807FA04F52B40AB4274D12E
:1007F000DFF870C14E68A6EB0C0866452BD00DDC07
:10080000032E34D005DC36B3012E19D0022E2FD1A1
:100810001BE0112E16D0122E2AD119E0B8F5881F30
:1008200019D006DCB8F5803F15D0B8F5801F1FD170
:1008300011E0B8F5001F0ED0B8F5041F18D10AE07A
:10084000CA6815E0CA68121D12E0CA6808320FE0D3
:10085000CA680C320CE08A682AB1012A4FF00802FB
:1008600003D0456104E0042202E0056100E00022BB
:10087000FF2B01D8064601E000F104064FEA84058B
:1008800001D9A5F12005D6F800C009FA05F82CEA2F
:10089000080C02FA05F54CEA050CC6F800C04D68D4
:1008A000ED0057D5304DAE6946F00106AE61AD6939
:1008B00024F0030605F0010500952C4D06EB050C10
:1008C000DCF80850A6074FEA167809FA08F6B5438F
:1008D000274EB04202D1002610E03BE0254EB04248
:1008E00001D101260AE0244EB04201D1022605E0E2
:1008F000224EB04201D1032600E0042606FA08F693
:100900002E43CCF808604D68DAF80060ED035546D8
:1009100001D51E4300E09E432E604D68DBF8006069
:10092000AD035D4601D51E4300E09E432E604D6839
:10093000DEF80060ED02754601D51E4300E09E43DF
:100940002E604D68AD020E4D2E6801D51E4300E0AD
:100950009E432E60641C102CFFF444AFBDE8F88F5A
:10096000000401400000111000100240000001408E
:1009700000080140000C014000100140001401403B
:100980000C0401408068084000D001207047C26814
:100990004A40C26070470AB1016170470904FBE731
:1009A00001488068704700002400002002488168E8
:1009B000027811448160704724000020074810B578
:1009C000016841F010010160032000F09BF8002055
:1009D00000F006F800F024F8002010BD00200240CE
:1009E00070B50D4D04464FF47A712878B1FBF0F0E4
:1009F0000A490968B1FBF0F000F0A7FD48B9102CD6
:100A000007D200222146501E00F05CF800206C60E6
:100A100070BD012070BD00002400002030000020C7
:100A2000204808B5816941F001018161816901F0C7
:100A300001010091C16941F08051C161C06900F0BC
:100A400080500090032000F05DF8002211466FF006
:100A50000B0000F037F8002211466FF00A0000F09A
:100A600031F8002211466FF0090000F02BF8002247
:100A70001146501F00F026F800221146101F00F00A
:100A800021F800221146901E00F01CF800221146A9
:100A9000501E00F017F80448416821F0E061416001
:100AA00008BD0000001002400000014000F01F02DD
:100AB000012191404009800000F1E020C0F80011C0
:100AC00070470000F0B40E4B1B680C46C3F30223C2
:100AD000C3F10705042D00D90425191D072901D2EA
:100AE000002300E0DB1E012606FA05F1491E214025
:100AF00099409E40761E16403143F0BC01F050B93B
:100B00000CED00E0064900F0070208684FF6FF030D
:100B1000184040EA0220034A104308607047000072
:100B20000CED00E00000FA052DE9F047DFF83C810C
:100B300005460E46D8F8000000F00700B0420CD27F
:100B4000D8F8001021F007013143C8F80010D8F898
:100B5000000000F00700B04263D12878444C8007C1
:100B600005D56068A96820F0F00008436060287827
:100B7000C00745D06868012816D02168022816D021
:100B8000890700294DDA616821F0030101436160A2
:100B9000FFF706FF6968074641F2883001290FD048
:100BA0000229814619D027E021688903E9E78901F4
:100BB000E7E700BFFFF7F4FEC11B494501D918E084
:100BC00081466068C0F381000128F3D118E000BFBE
:100BD000FFF7E6FEC11B49450BD86068C0F38100F2
:100BE0000228F5D10CE000BFFFF7DAFEC11B494532
:100BF00002D90320BDE8F087606810F00C0FF3D134
:100C0000D8F80010404601F00701B1420BD9016845
:100C100021F0070131430160006800F00700B04295
:100C200001D00120E6E72878400705D56068E9682B
:100C300020F4E060084360602878000706D560680B
:100C4000296920F4605040EAC100606000F03CF87F
:100C50006168084AC1F30311515CC8400649086045
:100C60000020FFF7BDFE0020C4E700000020024086
:100C7000001002409825000830000020014800685C
:100C800070470000300000200448054900684968AA
:100C9000044AC1F30221515CC84070473000002073
:100CA00000100240A825000804480549006849686A
:100CB000044AC1F3C221515CC84070473000002093
:100CC00000100240A825000812A185B00FC98DE8C8
:100CD0000F0014A0144A006804905168134801F0F2
:100CE0000C03042B10D0082B0ED1C1F38343C9038E
:100CF0001DF803000AD5516804AAC1F34041515CB4
:100D00000A4A5043B0FBF1F005B070470849484328
:100D1000FAE7000002030405060708090A0B0C0D98
:100D20000E0F1010010200000010024000127A00A5
:100D300000093D002DE9F84F04460078B94DC00781
:100D400048D06868C0F38100012807D06868C0F304
:100D50008100022809D16868C00306D5286880038D
:100D600038D5606800286FD034E06068B0F5803F07
:100D70000BD010B1B0F5A02F11D0286820F480302E
:100D80002860286820F4802002E0286840F4803041
:100D90002860606888B1FFF703FE064609E028680E
:100DA00040F480202860F0E7FFF7FAFD801B6428FC
:100DB00075D828688003F7D50CE0FFF7F1FD0646EB
:100DC00005E000BFFFF7ECFD801B6428F0D8286821
:100DD0008003F7D42078944E80074FF001094FF03C
:100DE00000083BD5686810F00C0F07D06868C0F3A6
:100DF0008100022809D16868C00306D428688007EA
:100E000014D5206901281FD110E02069B0B1C6F8BF
:100E10000090FFF7C5FD074605E000BFFFF7C0FDE6
:100E2000C01B0228C4D828688007F7D528686169E4
:100E300020F0F80040EAC10028600FE0C6F800800A
:100E4000FFF7AEFD074606E0E9E000BFFFF7A8FDAB
:100E5000C01B022823D828688007F7D42078000711
:100E60002CD57248A169D9B1C0F80090FFF798FD60
:100E7000074604E0FFF794FDC01B02280FD8686AFC
:100E80008007F7D56A484FF4FA510068B0FBF1F0DB
:100E9000009000BF0098411E0091FAD20EE080E061
:100EA000C0F80080FFF77CFD074604E0FFF778FDFF
:100EB000C01B022875D8686A8007F7D420784007DD
:100EC00060D5E8690027C00008D4E86940F0805088
:100ED000E861E869012700F08050009055480168FA
:100EE000C90513D40168834641F480710160FFF79E
:100EF00057FD824606E000BFFFF752FDA0EB0A0057
:100F000064284ED8DBF80000C005F5D5E06801285C
:100F10000AD008B1052813D0286A20F00100286201
:100F2000286A20F0040002E0286A40F001002862EC
:100F3000E06841F2883B98B1FFF732FD82460BE052
:100F4000286A40F004002862EEE700BFFFF728FDA2
:100F5000A0EB0A0159455AD8286A8007F6D50CE05B
:100F6000FFF71EFD824605E0FFF71AFDA0EB0A0120
:100F700059454CD8286A8007F6D41FB1E86920F09B
:100F80008050E861E06988B36968C1F38101022992
:100F900045D00228C6F8608004D0FFF701FD044662
:100FA00038E034E0FFF7FCFC074604E0FFF7F8FC0C
:100FB000C01B02282BD828688001F7D4206AB0F51E
:100FC000803F05D16868A16820F40030084368605C
:100FD000D4E908010843696821F474110843686082
:100FE000C6F86090FFF7DCFC044606E015E000BFA1
:100FF000FFF7D6FC001B022809D828688001F7D526
:101000000BE000BFFFF7CCFC001B022802D9032035
:10101000BDE8F88F28688001F4D40020F8E70120AB
:10102000F6E7000000100240000042428004424205
:1010300030000020007000407047000038B50446C2
:101040000068426881684B0605D4CB0703D053067D
:1010500001D5216C04E08B0707D5130605D5616C1B
:1010600001B02046BDE83040084711F0600F3FD086
:1010700093063DD54B060AD594F85130032B34D056
:10108000636D43F004036365C36883680093890656
:1010900009D5616D41F001016165816800910168C8
:1010A00021F040010160606D002821D02068416876
:1010B00021F0E0014160012084F85100900718D030
:1010C0002068416821F0030141600C4DE06C18B1CB
:1010D0004563E06CFFF72CFBA06C002808D045634B
:1010E000A06CBDE83840FFF723BBC1688068009062
:1010F00038BD2046FFF7A0FF38BD0000F11D0008F5
:1011000070B5040005D00025A56294F8510010B117
:1011100004E0012070BD204600F034F8022084F87D
:1011200051002068016821F040010160D4E901010B
:101130000843D4E903121143084361690843218B32
:1011400001F400710843E1690843216A0843A16A78
:10115000084321680860A069042101EA1040616A1F
:101160000843216848602168E06A08612068C16915
:1011700021F40061C1616565012084F851000020FF
:1011800070BD000010B50068164986B0884226D1AF
:101190001548C16941F48041C161C069134C00F434
:1011A000804004904FF420400090022001900320E2
:1011B000039069462046FFF707FB00214FF480406B
:1011C000CDE90001029169462046FFF7FDFA0022B1
:1011D00011462420FFF776FC2420FFF767FC06B0B9
:1011E00010BD00000038004000100240000C01401B
:1011F0002DE9F84F044690F850000026994617460E
:101200000D4601280DD04FF0010B84F850B0FFF7C8
:10121000C7FB804694F85100B246012804D002264C
:1012200094E00220BDE8F88F002D7BD0002F79D00C
:10123000032084F85100C4F854A02563A786E786EC
:10124000C4F838A0A4F83CA0A4F83EA0C4F844A078
:10125000C4F840A0A068B0F5004F04D12068016830
:1012600041F48041016020680168490603D40168A7
:1012700041F040010160E068B0F5006F606804D0A3
:1012800030B3E08E012823D03EE010B1E08E01287B
:101290001AD135F8021B206805E0206881688907AB
:1012A00006D535F8021BC160E08E401EE0860BE0DB
:1012B000B9F1000F34D0B9F1FF3F05D0FFF770FB53
:1012C000A0EB080149452BD2E08E0028E5D11EE0B5
:1012D000216815F8010B087306E02068816889070A
:1012E00006D515F8011B0173E08E401EE0860BE069
:1012F000B9F1000F14D0B9F1FF3F05D0FFF750FB53
:10130000A0EB080149450BD2E08E0028E5D14B4601
:10131000012202212046CDF8008000F071FD10B1BD
:10132000032613E011E042464946204600F050FDF6
:1013300018B101262020606508E0A06818B920686F
:10134000C16880680090606D00B1012684F851B0DA
:1013500084F850A0304665E72DE9F84F044690F830
:10136000500000260A9F9A4693460D464FF001080A
:1013700001280ED0012084F85000FFF711FB8146B0
:1013800094F85100616801280CD0B1F5827F07D133
:1013900002E00220BDE8F88FA16809B9042801D055
:1013A0000226BDE055B1BBF1000F07D0BAF1000F26
:1013B00004D094F85100012802D004E00126AFE0E7
:1013C000052084F8510000206065C4F838B0A4F806
:1013D0003EA0A4F83CA02563A4F836A0A4F834A04D
:1013E0002064606420680168490603D4016841F004
:1013F00040010160E068B0F5006F606804D0E8B3B8
:10140000E08E01283BD06AE010B1E08E01282ED199
:10141000216835F8020BC860E08E401EE08626E0A9
:10142000B8F1000F0DD0E08E58B1206881688907AF
:1014300007D535F8021BC160E08E401EE0864FF0F4
:101440000008E08F58B120688168C90707D0C068DC
:101450002BF8020BE08F401EE0874FF00108781C4C
:1014600005D0FFF79DFAA0EB0900B84246D2E08E06
:101470000028D5D1E08F0028D2D136E0FFE72168DF
:1014800015F8010B0873E08E401EE08627E000BFD0
:10149000B8F1000F0DD0E08E58B12068816889073F
:1014A00007D515F8011B0173E08E401EE0864FF052
:1014B0000008E08F58B120688168C90707D0C0686C
:1014C0000BF8010BE08F401EE0874FF00108781CFD
:1014D00005D0FFF765FAA0EB0900B8420ED2E08E06
:1014E0000028D5D1E08F0028D2D13B46012202212D
:1014F0002046CDF8009000F083FC08B103260FE0F1
:101500004A463946204600F063FC18B101262020E7
:10151000606505E0A06818B92068C168806800901F
:10152000012084F85100002084F85000304631E753
:101530004FF0E0210428086903D020F0040008617E
:10154000704740F00400FAE7704710B5401EB0F154
:10155000807F01D3012010BD4FF0E02460610F2196
:10156000601700F01DFC0020A06107202061002012
:1015700010BD10B5FFF7E8FF10BD7047704730B5DC
:1015800090F83C20012A20D0012280F83C20022340
:1015900080F83D3003685C6824F070045C60036888
:1015A0005C680D682C435C6003689C6824F08004D0
:1015B0009C6003689C6849680C439C6080F83D20EF
:1015C000002180F83C10084630BD022030BD10B527
:1015D000040003D094F83D0010B107E0012010BDD5
:1015E000002084F83C00204600F00CF8022084F82B
:1015F0003D00211D206800F0C5FC012084F83D005D
:10160000002010BD08B50068B0F1804F12D10A4823
:10161000C16941F00101C161C069002200F001000F
:10162000009011461C20FFF74DFABDE808401C2031
:10163000FFF73CBA08BD0000001002400168CA680C
:1016400042F00102CA600068016841F001010160D6
:101650000020704770B5044690F83C00012817D070
:10166000012584F83C50022084F83D0020688268FF
:1016700022F0770222F47F4282600868502837D037
:101680000DDC202859D005DC88B3102841D151E069
:10169000022070BD302853D040283AD13FE0602866
:1016A0002ED070280BD0B0F5805F03D0B0F5005F6E
:1016B0002FD110E02068816821F0070115E0CB6888
:1016C000D1E90121206800F093FC2168886840F08E
:1016D000770088601DE0CB68D1E90121206800F027
:1016E00087FC2068816841F48041816011E01EE040
:1016F000CA684968206800F08DFC5021206806E027
:10170000CA684968206800F096FC6021206800F0F3
:1017100079FC84F83D50002084F83C0070BDCA6814
:101720004968206800F076FC40212068EFE700213E
:101730002068ECE710212068E9E720212068E6E72F
:1017400030212068E3E7704770B5044600680169FE
:101750004FF00005C943890715D4C168C9438907FB
:1017600011D4E91E0161012020772068806980077B
:10177000204602D0FFF7E7FF04E000F098F820468B
:1017800000F096F8257720680169C943490717D406
:10179000C168C943490713D46FF0040101610220F5
:1017A00020772068806910F4407F204602D0FFF740
:1017B000CAFF04E000F07BF8204600F079F82577B6
:1017C00020680169C943090716D4C168C9430907DC
:1017D00012D46FF008010161042020772068C069ED
:1017E0008007204602D0FFF7AEFF04E000F05FF86C
:1017F000204600F05DF8257720680169C943C906D5
:1018000017D4C168C943C90613D46FF01001016130
:10181000082020772068C06910F4407F204602D05D
:10182000FFF791FF04E000F042F8204600F040F896
:10183000257720680169C943C90708D1C168C94330
:10184000C90704D1891E0161204600F032F82068E2
:101850000169C943090609D4C168C943090605D409
:101860006FF0800101612046FFF787FE2068016963
:10187000C943490609D4C168C943490605D46FF074
:1018800040010161204600F015F820680169C94354
:1018900089060BD4C168C943890607D46FF02001BB
:1018A00001612046BDE87040FFF768BE70BD70471B
:1018B000704770477047704770B5026804461068FB
:1018C000D168536910F00F0F50D003F0010501F4F7
:1018D000907635435DD0C20705D0CA0503D5E26BCB
:1018E00042F00102E263420705D5DA0703D0E26B5A
:1018F00042F00202E263820705D5DA0703D0E26B09
:1019000042F00402E263020705D5DA0703D0E26B76
:1019100042F00802E263E26B002A33D0800604D56D
:10192000880602D5204600F0AEFB20684069E16BD6
:10193000C0F38010090700D428B3204600F095FBBF
:101940002068416949061AD5416921F04001416189
:10195000606BA0B11B494163606BFEF7E9FE002894
:1019600010D0606B416BBDE870400847830610D50E
:101970008B060ED52046BDE8704000F084BB2046A3
:10198000FFF799FF70BD2046FFF795FF0020E06349
:1019900070BD030606D50B0604D52046BDE8704091
:1019A00000F074BC4006F3D54806F1D5D168204656
:1019B00021F04001D160202184F8391000F0F1F8C5
:1019C00070BD00005B20000870B5040004D094F8DE
:1019D0003900002510B106E0012070BD84F83850B0
:1019E000204600F023F8242084F839002068C168DC
:1019F00021F40051C160204600F090FB206801698D
:101A000021F4904101612068416921F02A0141617E
:101A10002068C16841F40051C160E563202084F86A
:101A2000390084F83A00002070BD000030B500682D
:101A3000154985B0884224D11448C16941F4003168
:101A4000C161C069022400F4003004900420CDE993
:101A5000000403200E4D039069462846FEF7B4FEAD
:101A60000820CDE900040020029069462846FEF7D0
:101A7000ABFE002211462620FFF724F82620FFF7B0
:101A800015F805B030BD00000044004000100240D1
:101A90000008014090F83A30202B22D1F9B1F2B180
:101AA00090F83830012B1CD081628285C2850021DC
:101AB000C163222280F83A2080F838100168CA6891
:101AC00042F48072CA6001684A6942F001024A61C8
:101AD0000068C16841F02001C1600020704701200A
:101AE00070470220704770472DE9F843044690F88C
:101AF00039001F4616460D46202850D1A5B19EB18B
:101B000094F8380001284AD0012084F838004FF0BA
:101B10000008C4F83C80212084F83900FEF740FF1B
:101B2000A6848146E68426E00120BDE8F883E08CA7
:101B3000401EE084A0684B46B0F5805F4FF0000285
:101B40004FF080012046009703D000F0D0FBE8B9A9
:101B50000DE000F0CCFBC8B928882168C0F308006C
:101B60004860206908B16D1C05E0AD1C03E02168E8
:101B700015F8010B4860E08C0028D8D14B460022B4
:101B800040212046009700F0B2FB08B10320CCE7CB
:101B9000202084F8390084F838800020C5E702202E
:101BA000C3E77047FEE700000C4810B50A49016022
:101BB0001021416000218160C1600161416181614A
:101BC000C161016241628162C162FEF7E3FC0028EB
:101BD00000D0FEE710BD0000006400403800002087
:101BE0002DE9F047434886B0816941F010018161D9
:101BF000816901F010010491816941F02001816146
:101C0000816901F020010491816941F00401816141
:101C1000816901F004010491816941F00801816149
:101C20008069DFF8D48000F0080004900022B02121
:101C30004046FEF7B0FEDFF8C4900022102148466F
:101C4000FEF7A9FEDFF8B8A04FF48057002239460E
:101C50005046FEF7A0FE780000902A480024CDE907
:101C6000010469464846FEF7AFFDB0200125022673
:101C7000CDE90005CDE9024669464046FEF7A4FDE0
:101C80004FF4FA50CDE90004694640460294FEF74D
:101C90009BFD1020CDE90005CDE902466946484686
:101CA000FEF792FD4FF46870CDE90004694648469E
:101CB0000294FEF789FD40F60300CDE90004694671
:101CC00050460294FEF780FD00970396CDE901543B
:101CD00069465046FEF778FDE02000901220019002
:101CE0000320039069465046FEF76EFD06B0BDE83E
:101CF000F087000000100240000801400010014081
:101D0000000C0140000011100F4810B50D49016092
:101D10004FF482714160002102228160C0E9031208
:101D200001224261520282613822C0E907214162E8
:101D300081620A21C162FFF7E3F9002800D0FEE7C3
:101D400010BD0000003800407C00002030B5124873
:101D50004FF0804187B08D14C0E9001500244FF684
:101D6000FF71C0E9024104618461FFF730FC00B1FA
:101D7000FEE7694608480095FFF76CFC00B1FEE7F6
:101D8000049404A904480594FFF7F9FB002800D047
:101D9000FEE707B030BD0000D4000020FEE770472A
:101DA0000907090E002806DA00F00F0000F1E02014
:101DB00080F8141D704700F1E02080F8001470478F
:101DC000704700000148FFF739B900007C0000208F
:101DD00038B50B46009204460022802100F010F82E
:101DE000002804D0606D40F020006065032038BDFD
:101DF00010B5406A0021C187C186FFF71DF910BDEB
:101E00002DE9F0411D4617460E460446DDF81880C0
:101E100035E0681C33D02DB1FEF7C2FDA0EB080001
:101E2000A8422CD32068416821F0E001416060683D
:101E3000B0F5827F0BD1A068B0F5004F02D0B0F5AD
:101E4000806F04D12068016821F040010160A06A20
:101E5000B0F5005F0AD1206801684DF6FF721140AD
:101E600001602068016841F400510160012084F89C
:101E70005100002084F850000320BDE8F081206864
:101E8000806836EA000004D00020B842C1D10020AA
:101E9000F3E70120F9E7704710B5FEF787FDBDE8CD
:101EA0001040FFF766BB30B58FB0022501200490CB
:101EB00000951020059000244FF46010CDE90840F3
:101EC00007956846FEF736FF00B1FEE70F20CDE923
:101ED0000A054FF48060CDE90C4002210AA80E9457
:101EE000FEF722FE00B1FEE7FEF7C8FE4FF47A715E
:101EF000B0FBF1F0FFF729FB0420FFF719FB0022EC
:101F00001146501EFEF7DEFD0FB030BD0D480168D2
:101F100041F00101016041680B4A114041600168D4
:101F20000A4A11400160016821F480210160416882
:101F300021F4FE0141604FF41F0181600449C00398
:101F400008607047001002400000FFF8FFFFF6FE37
:101F500008ED00E010B520210648FEF718FD064800
:101F6000FFF7F2FB054800F0B9FA054AC2E90001A3
:101F700010BD000000080140D400002058010020DE
:101F800000000020F0B50268164B174C174D4FF0BB
:101F90008047984205D0B84203D0A04201D0A84261
:101FA00003D122F070064A683243984205D0B84205
:101FB00003D0A04201D0A84203D122F44074CA68E1
:101FC000224322F080044A69224302608A68C26286
:101FD0000A688262984201D1096901630121416165
:101FE000F0BD0000002C014000040040000800404B
:101FF00010B5846842EA032224F47F440A43224352
:10200000826010BD826822F070020A4342F007012C
:102010008160704710B5036A046A24F00104046209
:10202000846924F0F00444EA021423F00A020A430B
:102030008461026210BD10B5036A23F010030362CD
:102040008369046A23F4704343EA023224F0A00354
:1020500043EA01118261016210BD10B5406A00219E
:10206000C185C184FFF727FC10BD0168CA6822F44E
:102070009072CA6001684A6922F001024A61202117
:1020800080F83A10704710B590F83A10222901D024
:10209000022010BD8168B1F5805F11D0016900296F
:1020A00001681FD0496801F07F03816A4A1C82627F
:1020B0000B70C18D491E0904090CC18518D02BE095
:1020C0000269816A002A0268526805D0D2B20A8089
:1020D000816A491C8162ECE7C2F308020A80816AC6
:1020E000891CF7E74A68816A4B1C83620A70E0E743
:1020F0000168CA6822F02002CA600168CA6822F436
:102100008072CA6001684A6922F001024A61202196
:1021100080F83A10FFF7E7FC002010BD2DE9F041F0
:10212000044600680169E26821F4405111430161ED
:102130002169A0680843616908432168CA6841F2BF
:102140000C639A430243CA6020684169A26921F482
:102150004071114341614C49206864253226884210
:102160003CD1FEF7A1FD00EBC00101EB001061685E
:102170008900B0FBF1F7FEF797FD00EBC00101EB22
:1021800000106168B0468900B0FBF1F0B0FBF5F0DB
:102190006FF01801484307EB800106EB0110B0FB1C
:1021A000F5F000F0F006FEF77FFD00EBC00101EB5B
:1021B000001061688900B0FBF1F0B0FBF5F006EBB0
:1021C0000016FEF771FD00EBC00101EB0010616825
:1021D0008900B0FBF1F7FEF767FD3BE0FEF754FD29
:1021E00000EBC00101EB001061688900B0FBF1F762
:1021F000FEF74AFD00EBC00101EB00106168B0463C
:102200008900B0FBF1F0B0FBF5F06FF01801484326
:1022100007EB800106EB0110B0FBF5F000F0F006D3
:10222000FEF732FD00EBC00101EB00106168890090
:10223000B0FBF1F0B0FBF5F006EB0016FEF724FD65
:1022400000EBC00101EB001061688900B0FBF1F701
:10225000FEF71AFD00EBC00101EB00106168890078
:10226000B0FBF1F0B0FBF5F06FF01801484307EB5D
:10227000800108EB0110B0FBF5F0216800F00F00C1
:1022800030448860BDE8F0810038014090F8391092
:10229000212901D0022070478168B1F5805F016A71
:1022A0000BD04A1C0262026809785160C18C491E39
:1022B0000904090CC1840ED017E009880268C1F333
:1022C0000801516001690029016A02D0491C0162BC
:1022D000ECE7891CFBE70168CA6822F08002CA604B
:1022E0000068C16841F04001C160002070472DE9DD
:1022F000F041984617460E460446069D1DE0681CB0
:102300001BD02DB1FEF74CFBA0EB0800A84214D95E
:102310002068C16821F4D071C1602068416921F052
:1023200001014161202084F8390084F83A0000203E
:1023300084F838000320BDE8F0812068006836EAA0
:10234000000004D00020B842D9D00020F3E70120DB
:10235000F9E7000070B51D48FFF7AEFA1C4C207875
:10236000522804D053281AD048281DD022E0607883
:1023700000256B1E502804D0532805D052280BD0BE
:1023800018E00822134901E0134908220F48FFF71B
:10239000ABFB657025700DE001221049F6E760780F
:1023A000FEF758F80E4A03E06078FEF753F80D4A3E
:1023B000C2E90001022206490448FFF76BFBBDE8B1
:1023C000704020210848FEF7E2BA00001401002006
:1023D0002100002008000020000000202000002034
:1023E000180000201000002000080140FEE702E075
:1023F00008C8121F08C1002AFAD170477047002090
:1024000001E001C1121F002AFBD17047FEF7D6FA86
:10241000FFF749FDFFF7E4FB1C481B490C22016054
:102420004FF41651416000218160C160C0E904127F
:102430008161C161FFF7C8FA00B1FEE7FFF764FCF4
:10244000FFF7B2FBFFF782FC0122114C150329466E
:102450002046FEF7A0FA0D48983800F1DC029060A3
:1024600095801460E0141082D460002109489161C5
:10247000D061A2F18400FFF7E1F802220649034887
:10248000FFF708FBFEE700000044004014010020B5
:10249000000C014000E07A402100002038B50446DD
:1024A00080880090A12180202368A26800F055F860
:1024B000218AE068FEF766FA0128F9D0A388012096
:1024C0002268A16800F02AF80502A3880220226889
:1024D000A16800F023F82843400838BD10B5044631
:1024E000FFF7DCFFFDF7B6FF0022084BFDF743FFC7
:1024F000D4E90623FDF7CDFE0022054BFDF7C3FE10
:10250000BDE81040034A044BFDF7C3BEC0FFDF40E7
:10251000000059402DB29DEFA7C60440FEB51546F8
:102520008DF8040000200E468DF8050002461C467A
:1025300019462846FEF72FFA4FF0FF30009002238D
:1025400002AA01A93046FEF707FF012221462846CC
:10255000FEF721FA9DF80900FEBD2DE9FF41154661
:102560000A9F1C46002239461846FEF714FA4FF01F
:10257000FF363346012269462846FEF739FE3346C8
:10258000012201A92846FEF733FE012239462046E2
:10259000FEF701FABDE8FF81000000000000000026
:1025A00001020304060708090000000001020304F9
:1025B000D02500080000002034000000EE230008B1
:1025C000042600083400002044050000FE23000813
:1025D00000000000000000000000000000000000FB
:1025E0000000000000000000000000000000244087
:1025F00001000000010000001000000000000000C9
:0426000000A24A04E6
:04000005080000ED02
:00000001FF
