:020000040800F2
:100000006006002001010008472F0008CD2C0008E1
:10001000452F0008D5070008C5390008000000007A
:100020000000000000000000000000005332000843
:100030001709000800000000692F00085532000869
:100040001B0100081B0100081B0100081B01000820
:100050001B0100081B0100081B0100081B01000810
:100060001B0100081B0100081B0100081B01000800
:100070001B0100081B0100081B0100081B010008F0
:100080001B0100081B0100081B010008AD39000816
:10009000B9390008D9070008E50700081B01000866
:1000A0001B0100081B0100081B0100081B010008C0
:1000B0002D3300081B0100081B0100081B0100086C
:1000C0001B0100081B0100081B0100081B010008A0
:1000D000813100081B010008A13900081B0100083C
:1000E0001B0100081B0100081B010008DFF80CD0F1
:1000F00000F05EFB00480047593A00086006002007
:100100000648804706480047FEE7FEE7FEE7FEE7B1
:10011000FEE7FEE7FEE7FEE7FEE7FEE7E532000862
:10012000ED000008202A04DB203A21FA02F0002129
:10013000704721FA02F3D040C2F1200291400843F7
:1001400019467047F0B480EA0102D40F4200B2EBC6
:10015000410F02D20246084611464A0042D0C30D62
:10016000DDB2C1F3C752AD1A202D35DAC1F3160145
:1001700041F4000204B15242C5F1200602FA06F130
:100180002A411044B3EBD05F23D0C4B1012DA0EBC2
:10019000C35009DCF0BC4FF0004202EAC352DBB2AC
:1001A00000F5000000F078BA400000F1807000EB2C
:1001B000C350A0F1807040EAD170490009E04908BD
:1001C00041EAC071A0EBC35000F50000400800EB0D
:1001D000C350F0BC00F057BA6142012202EB41016A
:1001E000001BF6E7F0BC704781F00041AAE780F001
:1001F0000040A7E730B480EA010202F0004530F089
:10020000004221F0004013D090B1C30DD40DC2F3D1
:100210001601C0F31600E41A41F4000140F4000294
:100220007D34914201D3641C00E04900002C02DAC5
:1002300030BC002070474FF400000023914201D3EE
:10024000891A034340084FEA4101F7D151B1914265
:1002500002D14FF0004105E002D24FF0010101E070
:100260006FF0010103EBC450284430BC00F00BBA1E
:10027000420005D0C0F3C7525242914201DC002037
:10028000704700EBC15070472DE9FE4F804681EA70
:100290000300C00F0C46009021F0004123F0004500
:1002A000B8EB0200A94105D24046214690461C46C3
:1002B0000B46024623F00040104347D0270DC7F3FA
:1002C0000A00C3F30A510290401A019040286BDAE9
:1002D000C3F3130040F4801B0098924620B1002322
:1002E000D2EB030A63EB0B0B01985946C0F14002B5
:1002F000504600F0A7F906460D4650465946019A69
:1003000000F0AFF910EB08006141002487EA1152B8
:1003100084EAE7731A4340D0009A62B3019A012A33
:100320004FEA075215DC001B61EB02014FF000425F
:1003300002EA0752CDE90042001C41F58011324625
:100340002B4600F0E6F903B0BDE8F08F40462146A9
:10035000F9E7001B61EB0201001C41F58013001856
:100360005B412018A2F5001747EB030140EAD57066
:10037000B6196D4111E06D084FEA360645EAC075C1
:100380004FEA0752001B61EB0201001C41F580118E
:1003900049084FEA30000019514132462B4603B05C
:1003A000BDE8F04F00F0A6B90098012240000023FC
:1003B000D0EB020263EBE073009821464FEAE07451
:1003C000B8EB000061EB0401E9E783F000435BE771
:1003D00081F0004158E72DE9FE4F81EA030404F063
:1003E000004421F0004100944FF0000B23F0004343
:1003F00050EA01045ED052EA03045BD0C3F30A540E
:10040000C1F30A552C44A4F2F3340194A0FB025426
:10041000C1F3130141F48011C3F3130343F48013B8
:1004200001FB024400FB034E840A970A44EA81540C
:1004300047EA8357A4FB076802958D0A05FB0785E9
:100440004FEA932C04FB0C542705029D4FEA0658F3
:1004500047EA1637B5EB08056EEB070C870E920ED0
:1004600047EA811742EA8312A7FB0201B6EB0B01B0
:1004700064EB00042B0D43EA0C335E1844EB1C5074
:10048000DA465146E7FB0201C5F313044FEA0B338A
:1004900043EA14534FEA0432019C43EA0603A4F1F1
:1004A0000C040294009CCDE900B400F032F903B0D2
:1004B000BDE8F08F00200146F9E72DE9F04D81EA13
:1004C000030404F0004B21F0004514464FF0000AED
:1004D00023F0004150EA050220D054EA01021DD069
:1004E000C5F30A570246C5F31303C1F31300C1F362
:1004F0000A5640F4801543F48013A7EB0608101B3E
:10050000D64608F2FD3873EB050002D308F1010866
:1005100001E092185B41B8F1000F03DA00200146B8
:10052000BDE8F08D00204FF48011064684460EE0B1
:10053000171B73EB050705D3121B63EB050306437B
:100540004CEA010C49084FEA300092185B4150EA2E
:100550000107EDD152EA030012D082EA040083EAD7
:100560000501084305D0101BAB4106D20122002330
:1005700006E000224FF0004302E06FF0010253104A
:100580001AEB06004CEB085110EB0A0041EB0B0193
:10059000BDE8F04D00F0AEB896230022114600F001
:1005A0007BB80EB540F2334102910021CDE9001134
:1005B0000A460B4600F0ADF803B000BD00F0004263
:1005C00030F000400AD0C10D01F56071C0F3160093
:1005D00042EA0151C208400711437047002001461A
:1005E000704701F0004330B421F0004150EA0102AD
:1005F00006D00A0DA2F56072C1F31301002A02DCD5
:1006000030BC00207047440F44EAC104C100E01828
:1006100030BC00EBC25000F036B80000002801DB0F
:10062000C0F10040002901DBC1F100418142704767
:10063000002801DBC0F10040002901DBC1F10041CD
:1006400088427047202A04DB203A00FA02F1002099
:1006500070479140C2F1200320FA03F31943904000
:100660007047202A06DBCB17203A41FA02F043EA12
:10067000E07306E041FA02F3D040C2F1200291405B
:100680000843194670470029A8BF7047401C49001D
:1006900008BF20F00100704710B4B0FA80FC00FAE7
:1006A0000CF050EA010404BF10BC704749B1CCF112
:1006B000200421FA04F411FA0CF118BF012121439E
:1006C0000843A3EB0C01CB1D4FEA00614FEA102059
:1006D00042BF002010BC704700EBC35010440029FB
:1006E000A4BF10BC7047401C490008BF20F00100A7
:1006F00010BC704710B5141E73F1000408DA401CDA
:1007000041F1000192185B411A4301D120F0010030
:1007100010BD2DE9F04D92469B4611B1B1FA81F220
:1007200002E0B0FA80F220329046FFF78BFF0446D9
:100730000F4640EA0A0041EA0B0153465A46084375
:1007400013D0114653EA010019D0C8F140025046B7
:10075000FFF7E8FC05460E46504659464246FFF76D
:1007600071FF084305D0012004E020463946BDE86A
:10077000F08D0020054346EAE0762C4337430A9883
:100780006305E40AA0EB08000022FD0A44EA47548E
:100790000A3002D500200146E9E701051019694138
:1007A000DDE9084500196941BDE8F04DA2E7000008
:1007B000064C074D06E0E06840F0010394E80700AE
:1007C00098471034AC42F6D3FFF794FC683D00081C
:1007D000883D0008FEE70000014800F017B900005E
:1007E00050000020014800F011B900005000002026
:1007F00010B5002958D0826B4FF4D873046803EB0E
:100800000113E45814F0040494600468E4584DD0D3
:10081000E40854600468E35803F00203D3604FF423
:10082000DA73046803EB0113E45804F00F04146155
:1008300011620468E358C3F30723D3614FF4DC73F8
:10084000046803EB0113E45814750468E458240A9F
:1008500054750468E458240C94750468E3581B0E1E
:10086000D3754FF4DE73046803EB0113E458147678
:100870000468E458240A54760468E458240C9476F6
:100880000468E3581B0ED3760368202289B11A61ED
:100890000268536923F05003536190F83C20222AE8
:1008A0000DD0322A0BD00FE0426BA5E7640D146027
:1008B000B0E7DA600268536923F00A03ECE70268E4
:1008C000536923F40F43536112220123002990F846
:1008D0003C1006D0522915D0622916D0722906D1B3
:1008E00015E042290ED0622908D0722908D080F87C
:1008F0003C3000BF00F0ECFA002010BD322107E0D0
:10090000522105E080F83C20F4E7222100E042215A
:1009100080F83C10EEE77047F0B50C7D012303FA38
:1009200004F20468D4F800524E6A25F47C5503EBB7
:1009300006231D43C4F800520368D3F81C429443B5
:10094000C3F81C424FF41073CD691C1DBDB9056876
:10095000D5F80C629643C5F80C628E894D684F69D4
:1009600066F31F45066803EBC707F5510E890D684E
:100970004F6966F31F45066804EBC707F551CD695B
:10098000012D17D10568D5F80C621643C5F80C6225
:100990000E884D684F6966F31F45066803EBC70371
:1009A000F5500D89CB684E6965F31F43056804EB6C
:1009B000C6042B518B69002B0368D3F8044211D075
:1009C00054EA0204C3F804420B69002B0368D3F80D
:1009D000144209D054EA0204C3F81442096A0129F6
:1009E00004D009E09443EDE79443F5E70168D1F8BA
:1009F0001C321343C1F81C320068D0F8001221F0F9
:100A00000101C0F800120020F0BD70472DE9F0414F
:100A1000044600680026C168C1F300134169C1F3B0
:100A2000C002102113B10AB14E01C16020680269F1
:100A30004369C2F30012C3F380131AB113B146F431
:100A400080660161216848694FF00105C043C00715
:100A50004ED18A687648904323D000208B68754A2F
:100A60009A4320D000228F68734BBB431DD00023D4
:100A7000104318433CD088688A68C0F340008B68F4
:100A8000C2F3402203F001031043184329D04A69FE
:100A9000204622F001024A6194F83C10122906D047
:100AA0000AE00120DAE70122DDE70123E0E701683F
:100AB0004A6922F40F424A6190F83C10422908D05A
:100AC000522908D0722908D080F83C5000F0BEFCB2
:100AD00009E0222102E0322100E0622180F83C108E
:100AE000F4E746F4006620688168544A1143816047
:100AF0002168C868496910F0030FC1F3400104D0B0
:100B000019B100212046FFF773FE21680869496981
:100B100010F0030FC1F3001104D019B101212046D8
:100B2000FFF766FE206C30432064206881694269CB
:100B300011F0010F4369C2F30022C3F3C03305D0A3
:100B400022B11BB1216C41F0010121648169C1F323
:100B500040034169C1F340224169C1F3C0312BB167
:100B600022B119B1216C41F0020121648169C1F304
:100B7000800341694269C1F38021C2F3C0322BB1C5
:100B800021B11AB1216C41F004012164816911F095
:100B9000700F08D000224169C1F3C0234169C1F33D
:100BA000C03112B121E00122F5E7F3B1E9B1816969
:100BB00001F0700140292FD006DC102909D020292E
:100BC0000BD030290DD123E0502929D0602908D13C
:100BD0002AE0216C41F0080102E0216C41F0100193
:100BE0002164816921F070018161206C00280DD0A1
:100BF00021680420486084F83C502068416948F628
:100C00005B72914341612046FFF7FFFEBDE8F08132
:100C1000216C41F02001E3E7216C41F04001DFE766
:100C2000216C41F08001DBE7216C41F48071D7E752
:100C30000100000400010008000001100905010086
:100C40002DE9F04104004FF0000504D094F83C0079
:100C5000002618B107E00120BDE8F08184F83D606E
:100C6000204600F083F8022084F83C0020680168E8
:100C700021F0020101602068016841F0010101607A
:100C800000F01EFD07464FF0030804E000F018FDD9
:100C9000C01B0A2853D820684068C007F6D02168D6
:100CA0004868C00758D0A069012801D145F08005E7
:100CB000E06901282FD025F04000226A012A2DD0BA
:100CC00020F02000626A012A2BD020F01000A26AD6
:100CD000012A29D020F00800E26A012A27D020F05A
:100CE00004000A6822F0FC0202430A60D4E902010F
:100CF0000843D4E90412114308436168491E0843BC
:100D00002168C8612068016821F00101016000F0DC
:100D1000D7FC054618E045F04000CEE740F0200043
:100D2000D0E740F01000D2E740F00800D4E740F0F0
:100D30000400D6E700F0C4FC401B0A2804D904F8DC
:100D40003C8F0320667087E720684068C007F1D1B8
:100D500020684068C00703D0042084F83C007AE78C
:100D60002664012084F83C00002075E710B5006877
:100D7000264986B0884246D12548C16941F00071B4
:100D8000C161C069234C00F0007004904FF4807082
:100D900000900020019002906946204600F0A4FBDC
:100DA00060150090022001900320039069462046C0
:100DB00000F09AFB1848416821F4C04141F0E0611D
:100DC00041F48041416000221146132000F00AFDE9
:100DD000132000F0FBFC00221146142000F002FD5D
:100DE000142000F0F3FC00221146152000F0FAFC5C
:100DF000152000F0EBFC00221146162000F0F2FC5A
:100E0000162000F0E3FC06B010BD000000640040B6
:100E100000100240000C01400000014030B511B14B
:100E2000012925D010E090F83C20222A28D090F803
:100E30003C20422A24D000BF90F83C20622A1FD0D8
:100E400090F83C20722A1BD090F83D20012A17D040
:100E5000012280F83D20622290F83C40722389B143
:100E6000122C19D0222C18D0422C19D0322214E086
:100E700090F83C20322A03D090F83C20522ADBD153
:100E8000022030BD122C05D0322C06D0522C07D0B7
:100E9000222202E0422200E0522280F83C2001E0BF
:100EA00080F83C300022026403685C6948F60175F2
:100EB0002C435C6180F83D2000680029416904D022
:100EC00041F050014161002030BD41F00A01F9E7D5
:100ED0002DE9F0470446406BE54D08260268E88896
:100EE0004FF0010A00F10E018A427CD1E14BA97852
:100EF000052703F1280839B12946EA78097903F171
:100F0000500CD2B159B12EE0216B0860206B076103
:100F1000216B93F820000875216BA8681CE0216BF9
:100F20000860206B076193F820009CF820100843AC
:100F3000216B0875216BE8680EE0A1B19AB9216BAD
:100F40000860206B076198F820009CF82010084387
:100F5000216B0875216B6869153102F0B2FE0A2118
:100F6000204600F08DF9E888216B401C0860206B5A
:100F70000761216B98F820000875216B28691531ED
:100F800002F09FFE0A21204600F07AF9E888216BE2
:100F9000C01C0860206B0661216B286A143102F0C6
:100FA00090FE216B686A183102F08BFE0A21204600
:100FB00000F066F9E888216B401D57460860206BF9
:100FC000C0F810A0216B287808750A21204600F08F
:100FD00057F9E888216B001D0860206B0661216BC2
:100FE000E869143100E03BE002F06BFE216BA86978
:100FF000183102F066FE0A21204600F041F9E88827
:10100000216B801D0860206B0761216B6878087573
:101010000A21204600F034F9E888216BC01D0860E1
:10102000206B0661216BA86A143102F04AFE216B25
:10103000E86A183102F045FE0A21204600F020F946
:10104000E888216B08300860216B04200861216B5F
:10105000286B143102F035FE0A21204600F010F909
:10106000626BEB88844F116803F10B00DFF80C9280
:101070004FF0000881424CD192F814C0527D6CF3BD
:10108000070062F30F20626B927D62F31740626B80
:10109000D27D62F31F60626B92F818C0527E6CF3CF
:1010A000070162F30F21626B927E62F31741626B5C
:1010B000D27E62F31F614A46904203DCB84201D2FD
:1010C000286206E0904200DD2A62B84201D3C5F8EA
:1010D0002080914203DCB94201D2696206E091426C
:1010E00000DD6A62B94201D3C5F82480206BDB1CA5
:1010F0000360206B0661216B286A143102F0E1FD68
:10110000216B686A183102F0DCFD0A21204600F0EC
:10111000B7F8626BEB88116803F10C0081424CD187
:1011200092F814C0527D6CF3070062F30F20626BDB
:10113000927D62F31740626BD27D62F31F60626B37
:1011400092F818C0527E6CF3070162F30F21626BB4
:10115000927E62F31741626BD27E62F31F614A4650
:10116000904203DCB84201D2E86106E0904200DD23
:10117000EA61B84201D3C5F81C80914203DCB94250
:1011800001D2A96106E0914200DDAA61B94201D312
:10119000C5F81880206B1B1D0360206B0661216B56
:1011A000E869143102F08DFD216BA869183102F055
:1011B00088FD0A21204600F063F8616BE8880B681F
:1011C00000F10D0293420DD1097D6970226B801DE3
:1011D0001060226BC2F810A0206B01750A21204616
:1011E00000F04EF8626BE88811680F3081422DD113
:1011F0001F48127D2830011D0270626B527D4270C3
:10120000626B927D8270626BD27DC270606B007E79
:101210000870606B407E4870606B807E8870606B89
:10122000C07EC870E888216BC01D0860206B066115
:10123000216BA86A143102F044FD216BE86A183171
:1012400002F03FFD0A21204600F01AF8606BE988A1
:1012500002680A318A4205D1017DA970417D297158
:10126000807DE8702046BDE8F04702F0F9BC000040
:101270000000002080010020000080800000C842A3
:101280002DE9F05F0E46016804468868400105D4E8
:101290008868000102D48868C0006FD594F83D00CA
:1012A00001280CD0012784F83D7094F83C002228D6
:1012B00008D0322808D062280ED0122005E0022083
:1012C000BDE8F09F422000E0522084F83C0088688E
:1012D000400103D5002507E07220F6E78868000189
:1012E00001D5012500E002254FF4C07000EB051088
:1012F0000A5802F001020A50216B8A68EAB3D4F856
:1013000000C05CF800301343CA68496842EAC10172
:101310000B434CF80030216B0A7C02F00F020A618B
:101320004FF4C271226801EB0511535823F00F03EB
:10133000535022685358D4F830C0DCF810C043EA48
:101340000C035350216B4FF4C47303EB05130A7D58
:10135000D1F8151042EA01222168CA50216B4FF4DE
:10136000C67303EB05130A7ED1F8191042EA012275
:101370002168CA5021680A5801E00DE05AE042F0A5
:1013800001020A5000F09CF981464FF00008DFF896
:10139000B0A0DFF8B0B026E022681358D1F80CC036
:1013A000098843EA0C0343EA41511150B3E7701C2A
:1013B00019D02EB100F084F9A0EB0900B04212D987
:1013C000032084F83C004DB1012D09D04FF40000FA
:1013D0002168886084F83D80032071E78020F7E76A
:1013E0004FF40040F4E7ADB12068012D816816D0BC
:1013F000154888430028DAD194F83C00422811D0DF
:10140000522811D0722813D084F83C7084F83D80A3
:10141000002055E7206881682AEA0100EAE72BEA04
:101420000100E7E7222000E0322084F83C00EDE7ED
:101430006220FAE7042084F83C00012040E7000025
:1014400001000004000100080000011070470000C6
:1014500010B590F821100024022903D004218163E3
:1014600001243DE001680A6822F00E020A6001686A
:101470000A6822F001020A601A4A0168914201D109
:10148000012121E0174A1432914201D110211BE0C1
:10149000144A2832914201D1891515E0114A3C3293
:1014A000914201D189140FE00E4A5032914202D18B
:1014B0004FF4803108E00B4A6432914202D14FF47C
:1014C000801101E04FF08071064A083A5160012115
:1014D00080F82110002180F82010416B01B188476D
:1014E000204610BD080002402DE9F84FDFF890A11A
:1014F00000220AF1040B144601274FF00F090BF1EB
:10150000040E00BF0B6807FA04F52B40AB4274D100
:10151000DFF870C14E68A6EB0C0866452BD00DDCD9
:10152000032E34D005DC36B3012E19D0022E2FD174
:101530001BE0112E16D0122E2AD119E0B8F5881F03
:1015400019D006DCB8F5803F15D0B8F5801F1FD143
:1015500011E0B8F5001F0ED0B8F5041F18D10AE04D
:10156000CA6815E0CA68121D12E0CA6808320FE0A6
:10157000CA680C320CE08A682AB1012A4FF00802CE
:1015800003D0456104E0042202E0056100E000228E
:10159000FF2B01D8064601E000F104064FEA84055E
:1015A00001D9A5F12005D6F800C009FA05F82CEA02
:1015B000080C02FA05F54CEA050CC6F800C04D68A7
:1015C000ED0057D5304DAE6946F00106AE61AD690C
:1015D00024F0030605F0010500952C4D06EB050CE3
:1015E000DCF80850A6074FEA167809FA08F6B54362
:1015F000274EB04202D1002610E03BE0254EB0421B
:1016000001D101260AE0244EB04201D1022605E0B4
:10161000224EB04201D1032600E0042606FA08F665
:101620002E43CCF808604D68DAF80060ED035546AB
:1016300001D51E4300E09E432E604D68DBF800603C
:10164000AD035D4601D51E4300E09E432E604D680C
:10165000DEF80060ED02754601D51E4300E09E43B2
:101660002E604D68AD020E4D2E6801D51E4300E080
:101670009E432E60641C102CFFF444AFBDE8F88F2D
:101680000004014000001110001002400000014061
:1016900000080140000C014000100140001401400E
:1016A0000C0401408068084000D001207047C268E7
:1016B0004A40C26070470AB1016170470904FBE704
:1016C00001488068704700003C00002002488168A3
:1016D00002781144816070473C000020074810B533
:1016E000016841F010010160032000F09BF8002028
:1016F00000F006F800F024F8002010BD00200240A1
:1017000070B50D4D04464FF47A712878B1FBF0F0B6
:101710000A490968B1FBF0F001F031F848B9102C22
:1017200007D200222146501E00F05CF800206C60B9
:1017300070BD012070BD00003C000020480000206A
:10174000204808B5816941F001018161816901F09A
:1017500001010091C16941F08051C161C06900F08F
:1017600080500090032000F05DF8002211466FF0D9
:101770000B0000F037F8002211466FF00A0000F06D
:1017800031F8002211466FF0090000F02BF800221A
:101790001146501F00F026F800221146101F00F0DD
:1017A00021F800221146901E00F01CF8002211467C
:1017B000501E00F017F80448416821F0E0614160D4
:1017C00008BD0000001002400000014000F01F02B0
:1017D000012191404009800000F1E020C0F8001193
:1017E00070470000F0B40E4B1B680C46C3F3022395
:1017F000C3F10705042D00D90425191D072901D2BD
:10180000002300E0DB1E012606FA05F1491E2140F7
:1018100099409E40761E16403143F0BC01F094BBC7
:101820000CED00E0064900F0070208684FF6FF03E0
:10183000184040EA0220034A104308607047000045
:101840000CED00E00000FA05014901200862704734
:1018500000000E4210B529A401461DCC86B08DE8CB
:101860001D002AA02A4C006804900020012923D0E2
:1018700002293AD010291DD161682268D20119D5F8
:10188000C1F38342C9031DF8020009D5616804AAA7
:10189000C1F34041515C1F4AB2FBF1F1484301E002
:1018A0001D4948436168490204D440005FF00301C8
:1018B000B0FBF1F006B010BD226AC2F3012101298C
:1018C00003D1920701D5C803F4E7022905D1626A62
:1018D000920702D549F64040ECE70329EAD1216896
:1018E0008903E7D54FF22440E4E700F04DF9616841
:1018F000C1F38131491C4900DAE700000203040505
:10190000060708090A0B0C0D0E0F1010010200004B
:101910000010024000127A0000093D002DE9F84352
:1019200005460078354CC00754D0E0690026C00059
:1019300008D4E06940F08050E061E069012600F0E1
:10194000805000902E480168C90512D40168804675
:1019500041F480710160FFF7B3FE074605E000BF68
:10196000FFF7AEFEC01B642823D8D8F80000C005DE
:10197000F6D5206A10F4407021D0A98801F4407196
:1019800081421CD0206A1F49012220F440700A6065
:1019900000220A602062C00711D0FFF791FE0746BF
:1019A00041F2883808E000BFFFF78AFEC11B4145BD
:1019B00002D90320BDE8F883206A8007F4D5206AA5
:1019C000696820F44070084320621EB1E06920F08D
:1019D0008050E0612878800705D56068A96820F408
:1019E0004040084360602878C00605D56068E96813
:1019F00020F48000084360600020DBE70010024014
:101A000000700040400442422DE9F047DFF83C817D
:101A100005460E46D8F8000000F00700B0420CD290
:101A2000D8F8001021F007013143C8F80010D8F8A9
:101A3000000000F00700B04263D12878444C8007D2
:101A400005D56068A96820F0F00008436060287838
:101A5000C00745D06868012816D02168022816D032
:101A6000890700294DDA616821F0030101436160B3
:101A7000FFF726FE6968074641F2883001290FD03A
:101A80000229814619D027E021688903E9E7890105
:101A9000E7E700BFFFF714FEC11B494501D918E075
:101AA00081466068C0F381000128F3D118E000BFCF
:101AB000FFF706FEC11B49450BD86068C0F38100E3
:101AC0000228F5D10CE000BFFFF7FAFDC11B494524
:101AD00002D90320BDE8F087606810F00C0FF3D145
:101AE000D8F80010404601F00701B1420BD9016857
:101AF00021F0070131430160006800F00700B042A7
:101B000001D00120E6E72878400705D56068E9683C
:101B100020F4E060084360602878000706D560681C
:101B2000296920F4605040EAC100606000F03CF890
:101B30006168084AC1F30311515CC8400649086056
:101B40000020FFF7DDFD0020C4E700000020024078
:101B5000001002404E3D0008480000200148006887
:101B600070470000480000200448054900684968A3
:101B7000044AC1F30221515CC8407047480000206C
:101B8000001002405E3D00080448054900684968AD
:101B9000044AC1F3C221515CC8407047480000208C
:101BA000001002405E3D000812A185B00FC98DE80B
:101BB0000F0014A0144A006804905168134801F003
:101BC0000C03042B10D0082B0ED1C1F38343C9039F
:101BD0001DF803000AD5516804AAC1F34041515CC5
:101BE0000A4A5043B0FBF1F005B07047084948433A
:101BF000FAE7000002030405060708090A0B0C0DAA
:101C00000E0F1010010200000010024000127A00B6
:101C100000093D002DE9F84F04460078B94DC00792
:101C200048D06868C0F38100012807D06868C0F315
:101C30008100022809D16868C00306D5286880039E
:101C400038D5606800286FD034E06068B0F5803F18
:101C50000BD010B1B0F5A02F11D0286820F480303F
:101C60002860286820F4802002E0286840F4803052
:101C70002860606888B1FFF723FD064609E0286800
:101C800040F480202860F0E7FFF71AFD801B6428ED
:101C900075D828688003F7D50CE0FFF711FD0646DC
:101CA00005E000BFFFF70CFD801B6428F0D8286812
:101CB0008003F7D42078944E80074FF001094FF04D
:101CC00000083BD5686810F00C0F07D06868C0F3B7
:101CD0008100022809D16868C00306D428688007FB
:101CE00014D5206901281FD110E02069B0B1C6F8D1
:101CF0000090FFF7E5FC074605E000BFFFF7E0FCBA
:101D0000C01B0228C4D828688007F7D528686169F5
:101D100020F0F80040EAC10028600FE0C6F800801B
:101D2000FFF7CEFC074606E0E9E000BFFFF7C8FC7E
:101D3000C01B022823D828688007F7D42078000722
:101D40002CD57248A169D9B1C0F80090FFF7B8FC52
:101D5000074604E0FFF7B4FCC01B02280FD8686AEE
:101D60008007F7D56A484FF4FA510068B0FBF1F0EC
:101D7000009000BF0098411E0091FAD20EE080E072
:101D8000C0F80080FFF79CFC074604E0FFF798FCD2
:101D9000C01B022875D8686A8007F7D420784007EE
:101DA00060D5E8690027C00008D4E86940F0805099
:101DB000E861E869012700F080500090554801680B
:101DC000C90513D40168834641F480710160FFF7AF
:101DD00077FC824606E000BFFFF772FCA0EB0A002A
:101DE00064284ED8DBF80000C005F5D5E06801286E
:101DF0000AD008B1052813D0286A20F00100286213
:101E0000286A20F0040002E0286A40F001002862FD
:101E1000E06841F2883B98B1FFF752FC82460BE044
:101E2000286A40F004002862EEE700BFFFF748FC94
:101E3000A0EB0A0159455AD8286A8007F6D50CE06C
:101E4000FFF73EFC824605E0FFF73AFCA0EB0A01F3
:101E500059454CD8286A8007F6D41FB1E86920F0AC
:101E60008050E861E06988B36968C1F381010229A3
:101E700045D00228C6F8608004D0FFF721FC044654
:101E800038E034E0FFF71CFC074604E0FFF718FCDD
:101E9000C01B02282BD828688001F7D4206AB0F52F
:101EA000803F05D16868A16820F40030084368606D
:101EB000D4E908010843696821F474110843686093
:101EC000C6F86090FFF7FCFB044606E015E000BF93
:101ED000FFF7F6FB001B022809D828688001F7D518
:101EE0000BE000BFFFF7ECFB001B022802D9032028
:101EF000BDE8F88F28688001F4D40020F8E70120BD
:101F0000F6E7000000100240000042428004424216
:101F100048000020007000402DE9F04791460C4633
:101F20005FEA00084AD084B3D8F800004068400750
:101F300044D4404601F0C0F84FF461620546B0FB5E
:101F4000F2F1B0FBF2F302FB13503C23B0FBF3F0D1
:101F5000B5FBF2F6607002FB1650B0FBF3F203FB28
:101F60001200A070182931D31820B1FBF0F7B1FB93
:101F7000F0F200FB12102070404601F096F8411C70
:101F800004D0A84202D9461B02E017E04FF0FF360A
:101F9000A7EB071000EB4000C0EB001005EBC015ED
:101FA0002946404601F0D7F840B9701C01D071199C
:101FB00000E03146404601F0BAF810B10120BDE81A
:101FC000F0873946404600F0E4FF00E02170B9F1A7
:101FD000000F0BD0207800F0D1FF2070607800F067
:101FE000CDFF6070A07800F0C9FFA0700020E6E788
:101FF00070B5040003D0607C002610B105E001201C
:1020000070BD2674204600F043F80220607420461C
:1020100000F010F9042578BB204601F011F858BBF8
:102020002068416821F007014160A06820B117488D
:10203000016821F0010101601448001F0168A268D5
:1020400021F46071114301606068411C04D10120DA
:10205000FFF700FC80B1401E21688A6822F00F0261
:1020600042EA10428A602168CA6860F30F02CA60BF
:10207000204600F0FFFF08B16574C0E7E673012059
:102080006073A0736074002070BD0000306C00406D
:1020900008B50068084988420DD1FFF7D5FB07480D
:1020A000C16941F00061C161C069054900F000608B
:1020B00000900120086008BD002800400010024088
:1020C0003C0442422DE9F0410D4604003BD0C5B32B
:1020D000207C01283AD04FF0010884F810800220BB
:1020E0006074E87872B300F040FFE073687800F045
:1020F0003CFF6073A87800F038FFA073C2B2617B28
:10210000E07B00F0E9FF20732870204600F0D4FF48
:102110004FF46161B0FBF1F1002518292DD9182287
:10212000B1FBF2F1A1EB011101EB4101C1EB011196
:1021300000EBC1163146204601F00DF80427C8B95E
:102140000BE000E004E00120BDE8F0810220FBE7A5
:10215000E07368786073A878CFE7204600F0A5FFA9
:10216000411C0AD0B04208D206490144204600F082
:10217000DEFF10B167742574E5E784F811802574DB
:102180000020E1E7805101002DE9F0410D460400F7
:1021900024D01DB3207C012823D04FF0010884F8FF
:1021A0001080022060742878EAB100F0DEFE4FF45F
:1021B000616100FB01F6687800F0D7FEC0EB00100B
:1021C00006EB8006A87800F0D0FE35182946204698
:1021D00000F0C1FF0026042710BB0FE00120BDE87E
:1021E000F0810220FBE74FF4616148436978C1EB5D
:1021F000011100EB8100A9784518E7E720684168E4
:1022000021F005014160204600F04FFF411C0AD03B
:10221000A84208D206490144204600F088FF10B1C8
:1022200067742674DAE784F8118026740020D6E7F4
:102230008051010070B504000AD02068416821F087
:1022400008014160FFF73CFA05464FF47A7608E052
:10225000012070BDFFF734FA401BB04201D90320C2
:1022600070BD206840680007F4D5002070BD70473D
:1022700038B504460068426881684B0605D4CB0730
:1022800003D0530601D5216C04E08B0707D5130654
:1022900005D5616C01B02046BDE83040084711F01B
:1022A000600F3FD093063DD54B060AD594F85130C8
:1022B000032B34D0636D43F004036365C368836804
:1022C0000093890609D5616D41F00101616581685E
:1022D0000091016821F040010160606D002821D06B
:1022E0002068416821F0E0014160012084F851003C
:1022F000900718D02068416821F0030141600C4D1F
:10230000E06C18B14563E06CFFF7A2F8A06C002800
:1023100008D04563A06CBDE83840FFF799B8C168A4
:102320008068009038BD2046FFF7A1FF38BD00004F
:10233000AD31000870B5040005D00025A56294F801
:10234000510010B104E0012070BD204600F034F8C7
:10235000022084F851002068016821F040010160EA
:10236000D4E901010843D4E9031211430843616928
:102370000843218B01F400710843E1690843216A95
:102380000843A16A084321680860A069042101EAA2
:102390001040616A0843216848602168E06A08616A
:1023A0002068C16921F40061C1616565012084F87C
:1023B0005100002070BD000010B50068164986B0BD
:1023C000884226D11548C16941F48041C161C06984
:1023D000134C00F4804004904FF420400090022001
:1023E00001900320039069462046FFF77DF8002105
:1023F0004FF48040CDE90001029169462046FFF785
:1024000073F8002211462420FFF7ECF92420FFF78F
:10241000DDF906B010BD0000003800400010024099
:10242000000C01402DE9F84F044690F850000026BA
:10243000994617460D4601280DD04FF0010B84F840
:1024400050B0FFF73DF9804694F85100B24601289C
:1024500004D0022694E00220BDE8F88F002D7BD046
:10246000002F79D0032084F85100C4F854A02563CC
:10247000A786E786C4F838A0A4F83CA0A4F83EA03C
:10248000C4F844A0C4F840A0A068B0F5004F04D13F
:102490002068016841F480410160206801684906B4
:1024A00003D4016841F040010160E068B0F5006FBD
:1024B000606804D030B3E08E012823D03EE010B134
:1024C000E08E01281AD135F8021B206805E020684B
:1024D0008168890706D535F8021BC160E08E401E71
:1024E000E0860BE0B9F1000F34D0B9F1FF3F05D021
:1024F000FFF7E6F8A0EB080149452BD2E08E002853
:10250000E5D11EE0216815F8010B087306E020688C
:102510008168890706D515F8011B0173E08E401EFE
:10252000E0860BE0B9F1000F14D0B9F1FF3F05D000
:10253000FFF7C6F8A0EB080149450BD2E08E002852
:10254000E5D14B46012202212046CDF8008000F063
:1025500035FE10B1032613E011E0424649462046FD
:1025600000F014FE18B101262020606508E0A06884
:1025700018B92068C16880680090606D00B10126BC
:1025800084F851B084F850A0304665E72DE9F84F43
:10259000044690F8500000260A9F9A4693460D463E
:1025A0004FF0010801280ED0012084F85000FFF7F9
:1025B00087F8814694F85100616801280CD0B1F584
:1025C000827F07D102E00220BDE8F88FA16809B937
:1025D000042801D00226BDE055B1BBF1000F07D0A1
:1025E000BAF1000F04D094F85100012802D004E0A1
:1025F0000126AFE0052084F8510000206065C4F892
:1026000038B0A4F83EA0A4F83CA02563A4F836A0F6
:10261000A4F834A02064606420680168490603D4EB
:10262000016841F040010160E068B0F5006F60684A
:1026300004D0E8B3E08E01283BD06AE010B1E08E10
:1026400001282ED1216835F8020BC860E08E401EAB
:10265000E08626E0B8F1000F0DD0E08E58B120687A
:102660008168890707D535F8021BC160E08E401EDE
:10267000E0864FF00008E08F58B120688168C907F4
:1026800007D0C0682BF8020BE08F401EE0874FF0A8
:102690000108781C05D0FFF713F8A0EB0900B84239
:1026A00046D2E08E0028D5D1E08F0028D2D136E086
:1026B000FFE7216815F8010B0873E08E401EE086E5
:1026C00027E000BFB8F1000F0DD0E08E58B12068B0
:1026D0008168890707D515F8011B0173E08E401E3C
:1026E000E0864FF00008E08F58B120688168C90784
:1026F00007D0C0680BF8010BE08F401EE0874FF059
:102700000108781C05D0FEF7DBFFA0EB0900B842FA
:102710000ED2E08E0028D5D1E08F0028D2D13B46E2
:10272000012202212046CDF8009000F047FD08B1BB
:1027300003260FE04A463946204600F027FD18B12F
:1027400001262020606505E0A06818B92068C168EE
:1027500080680090012084F85100002084F8500027
:10276000304631E74FF0E0210428086903D020F01B
:1027700004000861704740F00400FAE7704710B5A4
:10278000401EB0F1807F01D3012010BD4FF0E02446
:1027900060610F21601700F0D7FB0020A0610720C7
:1027A0002061002010BD10B5FFF7E8FF10BD704795
:1027B000704730B590F83C20012A20D0012280F8E3
:1027C0003C20022380F83D3003685C6824F07004EC
:1027D0005C6003685C680D682C435C6003689C68FF
:1027E00024F080049C6003689C6849680C439C60EA
:1027F00080F83D20002180F83C10084630BD0220C2
:1028000030BD10B5040003D094F83D0010B107E0CE
:10281000012010BD002084F83C00204600F00CF898
:10282000022084F83D00211D206800F003FF0120F4
:1028300084F83D00002010BD08B50068B0F1804F5D
:1028400012D10A48C16941F00101C161C069002289
:1028500000F00100009011461C20FEF7C3FFBDE808
:1028600008401C20FEF7B2BF08BD00000010024067
:102870000168CA6842F00102CA600068016841F05C
:10288000010101600020704770B5044690F83C00DB
:10289000012817D0012584F83C50022084F83D001F
:1028A0002068826822F0770222F47F428260086802
:1028B000502837D00DDC202859D005DC88B31028EB
:1028C00041D151E0022070BD302853D040283AD188
:1028D0003FE060282ED070280BD0B0F5805F03D089
:1028E000B0F5005F2FD110E02068816821F007016A
:1028F00015E0CB68D1E90121206800F0D1FE216804
:10290000886840F0770088601DE0CB68D1E901213C
:10291000206800F0C5FE2068816841F48041816034
:1029200011E01EE0CA684968206800F0CBFE502123
:10293000206806E0CA684968206800F0D4FE60217B
:10294000206800F0B7FE84F83D50002084F83C0079
:1029500070BDCA684968206800F0B4FE4021206854
:10296000EFE700212068ECE710212068E9E720214B
:102970002068E6E730212068E3E7704770B5044639
:10298000006801694FF00005C943890715D4C16883
:10299000C943890711D4E91E01610120207720680D
:1029A00080698007204602D0FFF7E7FF04E000F0CF
:1029B00098F8204600F096F8257720680169C94309
:1029C000490717D4C168C943490713D46FF00401FC
:1029D0000161022020772068806910F4407F204642
:1029E00002D0FFF7CAFF04E000F07BF8204600F0B9
:1029F00079F8257720680169C943090716D4C168A9
:102A0000C943090712D46FF008010161042020773F
:102A10002068C0698007204602D0FFF7AEFF04E0BF
:102A200000F05FF8204600F05DF825772068016926
:102A3000C943C90617D4C168C943C90613D46FF086
:102A400010010161082020772068C06910F4407FE0
:102A5000204602D0FFF791FF04E000F042F8204644
:102A600000F040F8257720680169C943C90708D1FB
:102A7000C168C943C90704D1891E0161204600F01D
:102A800032F820680169C943090609D4C168C943FD
:102A9000090605D46FF0800101612046FFF787FE2B
:102AA00020680169C943490609D4C168C943490678
:102AB00005D46FF040010161204600F015F8206850
:102AC0000169C94389060BD4C168C943890607D483
:102AD0006FF0200101612046BDE87040FFF768BE3D
:102AE00070BD7047704770477047704770B5026897
:102AF00004461068D168536910F00F0F50D003F0EE
:102B0000010501F4907635435DD0C20705D0CA05B2
:102B100003D5E26B42F00102E263420705D5DA0712
:102B200003D0E26B42F00202E263820705D5DA07C6
:102B300003D0E26B42F00402E263020705D5DA0734
:102B400003D0E26B42F00802E263E26B002A33D06A
:102B5000800604D5880602D5204600F0ECFD2068EA
:102B60004069E16BC0F38010090700D428B3204608
:102B700000F0D3FD2068416949061AD5416921F06A
:102B800040014161606BA0B11B494163606BFEF77E
:102B90005FFC002810D0606B416BBDE870400847B7
:102BA000830610D58B060ED52046BDE8704000F098
:102BB000C2BD2046FFF799FF70BD2046FFF795FF85
:102BC0000020E06370BD030606D50B0604D5204641
:102BD000BDE8704000F0B2BE4006F3D54806F1D51E
:102BE000D168204621F04001D160202184F83910BD
:102BF00000F06BF870BD00000B37000870B50400E2
:102C000004D094F83900002510B106E0012070BD11
:102C100084F83850204600F023F8242084F8390046
:102C20002068C16821F40051C160204600F0CEFD4B
:102C30002068016921F4904101612068416921F017
:102C40002A0141612068C16841F40051C160E56317
:102C5000202084F8390084F83A00002070BD00007C
:102C600030B50068154985B0884224D11448C1693F
:102C700041F40031C161C069022400F400300490C5
:102C80000420CDE9000403200E4D03906946284638
:102C9000FEF72AFC0820CDE90004002002906946D6
:102CA0002846FEF721FC002211462620FEF79AFD59
:102CB0002620FEF78BFD05B030BD0000004400402B
:102CC000001002400008014070477047FEE7000016
:102CD0000D4810B50B4901600621416000214FF4F9
:102CE00000228160C0E903125200C0E90521C161E0
:102CF000016241628162C162FDF7A2FF002800D03B
:102D0000FEE710BD00640040500000202DE9F047B0
:102D10004A4886B0816941F010018161816901F002
:102D200010010491816941F020018161816901F004
:102D300020010491816941F004018161816901F000
:102D400004010491816941F0080181618069DFF823
:102D5000F08000F0080004900022B0214046FEF709
:102D6000AAFCDFF8E090002220214846FEF7A3FCF1
:102D7000DFF8D4A041F20207002239465046FEF7A0
:102D80009AFC4FF40050009030480024CDE9010433
:102D900069464846FEF7A8FBB02001250226CDE98A
:102DA0000005CDE9024669464046FEF79DFB4020FE
:102DB000CDE90004694640460294FEF795FB1020D9
:102DC000CDE90004694648460294FEF78DFB2020B9
:102DD000CDE90005CDE9024669464846FEF784FB89
:102DE0007810CDE90004694650460294FEF77CFB5A
:102DF00000970396CDE9015469465046FEF774FBEF
:102E00004FF460708DE8310069464846FEF76CFB70
:102E10004FF4F8508DE8310069464046FEF764FBF8
:102E2000E020009012200190032003906946504654
:102E3000FEF75AFB06B0BDE8F08700000010024024
:102E40000008014000100140000C0140000011107A
:102E50001CB516481449002401604FF0FF31C0E949
:102E60000114FFF7C5F800B1FEE78DF804408DF8B6
:102E700005408DF80640012201A90C48FFF784F9AE
:102E800000B1FEE701208DF800008DF801008DF8FB
:102E9000020002468DF8034069460448FFF712F924
:102EA000002800D0FEE71CBD002800409400002050
:102EB0000F4810B50D4901604FF482714160002147
:102EC00002228160C0E90312012242615202826142
:102ED0003822C0E90721416281620A21C162FFF7FD
:102EE00029FA002800D0FEE710BD0000003800409D
:102EF000A800002030B512484FF0804187B08D14F3
:102F0000C0E9001500244FF6FF71C0E902410461D9
:102F10008461FFF776FC00B1FEE76946084800953A
:102F2000FFF7B2FC00B1FEE7049404A9044805943D
:102F3000FFF73FFC002800D0FEE707B030BD0000DF
:102F400000010020FEE770470907090E002806DA95
:102F500000F00F0000F1E02080F8141D704700F130
:102F6000E02080F8001470477047010901EB8101EF
:102F700000F00F0000EB4100C0B27047002102E0FA
:102F80000A38C0B2491C0A28FAD2090740EA11607F
:102F900070472DE9F04104460025C07B627BA37B8E
:102FA00042E0012A16D0032A14D0052A12D0072A9B
:102FB00010D0082A0ED00A2A0CD00C2A0AD0042AD3
:102FC00010D0062A0ED0092A0CD00B2A0AD0022AC9
:102FD0000DD028E01F2B0CD30C2A05D1012213465B
:102FE000401C20E01E2B04D30123521C1BE01C2B91
:102FF00002D203F1010316E011D183B29E0710D172
:103000006426B3FBF6F706FB173636B94FF4C876DD
:10301000B3FBF6F706FB17331BB91D2303E01D2B8B
:1030200001D1032201236D1C8D42BAD3D1B2E073CA
:103030006173DAB2A27300F04FF82073BDE8F0813B
:1030400070B50446FEF73CFB05464FF47A7606E081
:10305000FEF736FB401BB04201D9032070BD20684B
:1030600040688006F4D52068416841F01001416055
:10307000002070BD70B504460068416821F0100161
:103080004160FEF71DFB05464FF47A7607E000BF6E
:10309000FEF716FB401BB04201D9032070BD20682B
:1030A00040688006F4D5002070BD0168086A496A4E
:1030B00089B241EA00407047006881698AB2C169FB
:1030C0008BB2816989B28A4203D0C06961F31F4023
:1030D000704743EA02407047F0B56424C1EBC10376
:1030E0000927A500072603EB01130329B3FBF7F11A
:1030F00000F5FA60114401440AD2401EB0FBF4F21C
:1031000001EB9001B0FBF5F0891A0844001D08E0BE
:10311000B0FBF4F201EB9001B0FBF5F0891A084422
:10312000801CB0FBF6F106FB1100C0B2F0BD70B51B
:103130000D4606460024FFF783FF48B93168280C86
:1031400008623168A8B248623046FFF793FF00B1C9
:103150000124204670BD70B50D4606460024FFF7D9
:103160006FFF48B93168280C88613168A8B2C8611E
:103170003046FFF77FFF00B10124204670BD0000FC
:103180000148FFF775B80000A800002038B50B46CD
:10319000009204460022802100F010F8002804D09C
:1031A000606D40F020006065032038BD10B5406AB6
:1031B0000021C187C186FFF75AF810BD2DE9F04103
:1031C0001D4617460E460446DDF8188035E0681C9B
:1031D00033D02DB1FEF774FAA0EB0800A8422CD32F
:1031E0002068416821F0E00141606068B0F5827FAD
:1031F0000BD1A068B0F5004F02D0B0F5806F04D1BC
:103200002068016821F040010160A06AB0F5005F0C
:103210000AD1206801684DF6FF72114001602068F4
:10322000016841F400510160012084F85100002040
:1032300084F850000320BDE8F0812068806836EAF9
:10324000000004D00020B842C1D10020F3E70120E3
:10325000F9E7704710B5FEF739FABDE81040FFF7FF
:10326000A2BA30B593B0052000900004019001246B
:103270004FF40030CDE90204022540100494CDE95A
:1032800007504FF4E01009906846FEF7C3FC00B108
:10329000FEE70F20CDE90A0500200C900D900E905E
:1032A00001210AA8FEF7B0FB00B1FEE74FF48070E1
:1032B000CDE90F400FA8FEF731FB00B1FEE7FEF7A6
:1032C0004DFC4FF47A71B0FBF1F0FFF758FA04208F
:1032D000FFF748FA00221146501EFEF783FA13B09A
:1032E00030BD00000D48016841F0010101604168F6
:1032F0000B4A1140416001680A4A114001600168AF
:1033000021F480210160416821F4FE0141604FF405
:103310001F0181600449C00308607047001002402B
:103320000000FFF8FFFFF6FE08ED00E02DE9F05F7A
:103330002021A548FEF7BBF9A44CA54821780170CF
:10334000A448FFF71BFBA44800F04CFBA34800F087
:1033500049FBDFF88C92A048D9F8001000F064FC1B
:10336000A04DDFF8848228609C48D8F8001000F057
:103370005BFC9E4EDFF878A2DFF878B230609AF8F6
:10338000000068B39C4800F02DFB9C489C4F0078DF
:1033900090B19BF8000018BB9748D8F8001000F0D7
:1033A00043FC014638603068FCF7CCFE4FF0FF313B
:1033B000FCF75EFF934912E09BF8001081B178B9E9
:1033C0008D48D9F8001000F02FFC014638602868BD
:1033D000FCF7B8FE4FF0FF31FCF74AFF8A4908605E
:1033E0008A480027007800287DD09AF80010884885
:1033F000DFF82082DFF820924FF0010A31B17F49D7
:10340000097879B39BF8001069B3A3E02178F1B98A
:1034100001683068FCF796FE2968FDF7FFF80FD8C1
:10342000D8F800102868FDF703F909D8D9F800107A
:103430003068FDF7F3F803D884F800A0012201E01A
:10344000277000224FF400517448FEF734F92078B9
:1034500001287FD17248016860E000BF84F800A0B5
:10346000012272E02CE0FFE72178F9B9654E01688E
:103470003068FCF767FE2968FDF7D0F80FD8D8F858
:1034800000102868FDF7D4F809D8D9F80010306882
:10349000FDF7C4F803D884F800A0012201E02770EA
:1034A00000224FF400515D48FEF705F9207801280D
:1034B00050D15B4801682868FCF796FE514E30E019
:1034C0009BF80020F2B3E9BB217809BB01683068A2
:1034D000FCF738FE4C4D2968FDF7A0F811D8D8F854
:1034E0000010286800E02CE0FDF7A2F809D8D9F810
:1034F00000103068FDF792F803D884F800A001228C
:1035000001E0277000224FF400514448FEF7D3F841
:10351000207801281ED142483B4D01682868FCF7FD
:1035200063FE3168FDF77AF80BD9D8F800102868E7
:10353000FDF774F805D3D9F800103068FDF778F876
:103540008CD200E006E0277000224FF4005133488F
:10355000FEF7B1F81E4E751C307850B9207801285E
:1035600007D1AF706F702F70012229462D48FEF7EA
:103570000BFE2078002824D13078012821D114496D
:103580000122491C2748FEF7C7FC2878FDF704F8FC
:1035900006466878FDF700F82349FCF72BFE044641
:1035A000A878FCF7F9FF2149FCF724FE2146FCF737
:1035B000C9FD3146FCF7C6FD1D4C2168FCF7C2FD74
:1035C0002060BDE8F09F00000008014000000020DE
:1035D000380000200001002080010020A801002008
:1035E00028000020080000202C00002010000020EF
:1035F0000200002003000020D00100200400002071
:1036000034000020140000200C00002001000020E5
:1036100020000020180000201C00002000100140A5
:10362000240000209400002000007042000061454A
:1036300030000020F0B50268164B174C174D4FF0C4
:103640008047984205D0B84203D0A04201D0A8429A
:1036500003D122F070064A683243984205D0B8423E
:1036600003D0A04201D0A84203D122F44074CA681A
:10367000224322F080044A69224302608A68C262BF
:103680000A688262984201D109690163012141619E
:10369000F0BD0000002C0140000400400008004084
:1036A00010B5846842EA032224F47F440A4322438B
:1036B000826010BD826822F070020A4342F0070166
:1036C0008160704710B5036A046A24F00104046243
:1036D000846924F0F00444EA021423F00A020A4345
:1036E0008461026210BD10B5036A23F01003036207
:1036F0008369046A23F4704343EA023224F0A0038E
:1037000043EA01118261016210BD10B5406A0021D7
:10371000C185C184FFF7E9F910BD0168CA6822F4C8
:103720009072CA6001684A6922F001024A61202150
:1037300080F83A10704710B590F83A10222901D05D
:10374000022010BD8168B1F5805F11D001690029A8
:1037500001681FD0496801F07F03816A4A1C8262B8
:103760000B70C18D491E0904090CC18518D02BE0CE
:103770000269816A002A0268526805D0D2B20A80C2
:10378000816A491C8162ECE7C2F308020A80816AFF
:10379000891CF7E74A68816A4B1C83620A70E0E77C
:1037A0000168CA6822F02002CA600168CA6822F46F
:1037B0008072CA6001684A6922F001024A612021D0
:1037C00080F83A10FFF780FA002010BD2DE9F04193
:1037D000044600680169E26821F440511143016127
:1037E0002169A0680843616908432168CA6841F2F9
:1037F0000C639A430243CA6020684169A26921F4BC
:103800004071114341614C49206864253226884249
:103810003CD1FEF7B9F900EBC00101EB0010616883
:103820008900B0FBF1F7FEF7AFF900EBC00101EB47
:1038300000106168B0468900B0FBF1F0B0FBF5F014
:103840006FF01801484307EB800106EB0110B0FB55
:10385000F5F000F0F006FEF797F900EBC00101EB80
:10386000001061688900B0FBF1F0B0FBF5F006EBE9
:103870000016FEF789F900EBC00101EB001061684A
:103880008900B0FBF1F7FEF77FF93BE0FEF76CF93A
:1038900000EBC00101EB001061688900B0FBF1F79B
:1038A000FEF762F900EBC00101EB00106168B04661
:1038B0008900B0FBF1F0B0FBF5F06FF01801484360
:1038C00007EB800106EB0110B0FBF5F000F0F0060D
:1038D000FEF74AF900EBC00101EB001061688900B6
:1038E000B0FBF1F0B0FBF5F006EB0016FEF73CF98B
:1038F00000EBC00101EB001061688900B0FBF1F73B
:10390000FEF732F900EBC00101EB0010616889009D
:10391000B0FBF1F0B0FBF5F06FF01801484307EB96
:10392000800108EB0110B0FBF5F0216800F00F00FA
:1039300030448860BDE8F0810038014090F83910CB
:10394000212901D0022070478168B1F5805F016AAA
:103950000BD04A1C0262026809785160C18C491E72
:103960000904090CC1840ED017E009880268C1F36C
:103970000801516001690029016A02D0491C0162F5
:10398000ECE7891CFBE70168CA6822F08002CA6084
:103990000068C16841F04001C1600020704700002C
:1039A0000148FFF7A3B80000400100200148FDF7DF
:1039B0002DB80000500000200148FDF727B8000096
:1039C00050000020FEE702E008C8121F08C1002ACC
:1039D000FAD170477047002001E001C1121F002A90
:1039E000FBD1704710B504468388026881680720C0
:1039F00000F06FF984F82000002802D0012084F83C
:103A0000200010BD38B504468088009080202368CF
:103A1000A26800F07DF9A08800907F2183202368B0
:103A2000A26800F075F9A0880090FF218420236827
:103A3000A26800F06DF9A08800900021852023681D
:103A4000A26800F065F9A0880090FF218620236815
:103A5000A26800F05DF938BDFDF740FEFFF701FCFC
:103A6000FFF754F949484849002401604FF41651C2
:103A7000C0E901140C21C460C0E904418461C4613F
:103A8000FFF7BCF800B1FEE7FFF712FAFFF720F9E5
:103A9000FFF730FAFFF7DCF93C498022983901F151
:103AA000D800402381608280394A02600382C2606C
:103AB000384B0022C0E90623503002228160828008
:103AC000354A012502600582C2600022C0E9062352
:103AD00028381022816020218180304901600282D3
:103AE000C16000211A46C0E9061283212838FFF779
:103AF00089FF264883216830FFF784FF2348403040
:103B0000FFF770FF21486830FFF76CFF1F4A244918
:103B1000DC32A2F5E6700263C9884B1C1360026BAD
:103B20005460026BD460026B9460036B05221A61CF
:103B300000F5D47242639460426B1462406B41F0B2
:103B40000F025201C56111484901F830426001F18C
:103B5000E0020260C0E9055401F5B071C0E902411C
:103B6000C4610E210461C0E908510146A0F5F4705A
:103B7000FCF7D2FE05480021F038FDF74FF9034865
:103B80004038FEF775FEFEE700440040400100208B
:103B90000008014000E07A40000C014000100140A4
:103BA0000000002038B5044680880090A3218020C2
:103BB0002368A26800F0ACF8218AE068FDF772FD86
:103BC0000128F9D0A38801202268A16800F081F8BB
:103BD0000502A38802202268A16800F07AF8284331
:103BE000400838BD10B50446FFF7DCFFFCF7D9FCF0
:103BF0000022094BFCF761FCD4E90623FCF7EBFB40
:103C00000022064BFCF7E1FB054A064BFCF7E3FB01
:103C1000BDE81040FCF7E5BCC0FFDF4000005940A4
:103C20002DB29DEFA7C6044070B505460846FCF7C7
:103C3000C5FC094A094BFCF7CEFB06460C46284654
:103C4000FFF7D0FFFCF7BAFC32462346FCF7BDFB7A
:103C5000BDE87040FCF7C5BCDA4B682FA1BD04403D
:103C600090F83C10122928D0222180F83C10002125
:103C7000016401684A6942F480724A6101684A69D4
:103C800042F400724A6101684A6942F480624A6102
:103C900001684A6942F400624A6101684A6942F473
:103CA00000424A6101684A6942F480724A610068D0
:103CB000416941F0020141617047422180F83C10A6
:103CC000F5E70870020A4A70020C8A70000EC8708C
:103CD0007047FEB515468DF8040000200E468DF89D
:103CE000050002461C4619462846FDF7E4FC4FF045
:103CF000FF300090022302AA01A93046FEF746FCDD
:103D0000012221462846FDF7D6FC9DF80900FEBD9C
:103D10002DE9FF4115460A9F1C46002239461846E8
:103D2000FDF7C9FC4FF0FF363346012269462846AD
:103D3000FEF778FB3346012201A92846FEF772FB05
:103D4000012239462046FDF7B6FCBDE8FF810000A0
:103D5000000000000000010203040607080900003B
:103D60000000010203040000883D0008000000205C
:103D70004C000000C6390008D43D00084C0000206B
:103D800014060000D63900080000000000002001E1
:103D90000000000000000000000000000000000023
:103DA000000048420000B4420000204100000040F2
:103DB0000000000000000000000000000000000003
:103DC00000000000010000001000000000000000E2
:043DD00000A24A04FF
:04000005080000ED02
:00000001FF
